:020000040800F2
:1000000070B1002045010008B3350008DD1A000872
:10001000DD310008111300088F5F000800000000A8
:10002000000000000000000000000000293F000860
:100030006D170008000000002D370008114000086F
:100040005F0100085F0100085F010008F93C00083B
:100050005F0100085F010008511800085F010008F7
:100060005F0100085F0100085F0100085F010008F0
:100070005F0100085F0100085F0100085F010008E0
:100080005F0100085F0100085F0100085F010008D0
:100090005F0100085F0100085F0100085F010008C0
:1000A0005F0100085F0100085F0100085F010008B0
:1000B0005F0100085F010008A54100085F0100081A
:1000C0005F0100085F0100085F0100085F01000890
:1000D0005F010008E15C00085F0100085F010008A3
:1000E0005F0100085F0100085F0100085F01000870
:1000F0005F0100085F0100085F0100085F01000860
:100100005F0100085F0100085F0100085F0100084F
:100110005F0100085F0100085F0100085F0100083F
:100120005F0100085F0100085F0100085F0100082F
:10013000DFF80CD000F0F8FC00480047D5A200081A
:1001400070B100200648804706480047FEE7FEE7FA
:10015000FEE7FEE7FEE7FEE7FEE7FEE7FEE7FEE777
:100160003D40000831010008F0B480EA0102D40FDC
:100170004200B2EB410F02D20246084611464A0045
:1001800042D0C30DDDB2C1F3C752AD1A202D35DA0E
:10019000C1F3160141F4000204B15242C5F1200638
:1001A00002FA06F12A411044B3EBD05F23D0C4B168
:1001B000012DA0EBC35009DCF0BC4FF0004202EA75
:1001C000C35200F50000DBB200F0A1BB400000F11B
:1001D000807000EBC350A0F1807040EAD1704900FC
:1001E00009E0490841EAC071A0EBC35000F50000E6
:1001F000400800EBC350F0BC00F080BB614201221C
:1002000002EB4101001BF6E7F0BC704781F00041B2
:10021000AAE780F00040A7E780EA010210B502F0EB
:100220000043400026D04A0023D04FEA106101EB82
:100230001261C0F35600C2F3560240F4000042F4CB
:100240000002A0FB0220A1F17F014FEA004014044C
:1002500001D000F1010050EA124001D44000491ED3
:10026000C2B20C0604EBD010401C4008802A02D019
:1002700003E0002010BD20F00100002900DA00207A
:10028000184310BD30B480EA010202F0004530F09E
:10029000004221F0004015D0A0B1C0F3C753C2F313
:1002A000C754C2F31601C0F31600E41A41F400016A
:1002B00040F400027D34914201D3641C00E0490007
:1002C000002C02DA30BC002070474FF400000023FD
:1002D000914201D3891A034340084FEA4101F7D103
:1002E00051B1914202D14FF0004105E002D24FF0EE
:1002F000010101E06FF0010103EBC450284430BC60
:1003000000F0FCBA2DE9FE4F804681EA0300C00FE1
:100310000C46009021F0004123F00045B8EB0200AC
:10032000A94105D24046214690461C460B4602464E
:1003300023F00040104304D14046214603B0BDE8FD
:10034000F08F270DC7F30A00C3F30A510290401A39
:100350000190402866DAC3F3130040F4801B009834
:10036000924620B10023D2EB030A63EB0B0B0198FA
:100370005946C0F14002504600F08FFA06460D463D
:1003800050465946019A00F0A7FA10EB0800614167
:10039000002487EA115284EAE7731A433BD0009A9B
:1003A0003AB3019A012A4FEA075210DC001B61EBB5
:1003B00002014FF0004202EA0752CDE90042001C60
:1003C00041F5801132462B4600F0DBFAB6E7001B00
:1003D00061EB0201001C41F5801300185B412018FD
:1003E000A2F5001747EB030140EAD570B6196D413D
:1003F00011E06D084FEA360645EAC0754FEA07522C
:10040000001B61EB0201001C41F5801149084FEA15
:1004100030000019514132462B4603B0BDE8F04F81
:1004200000F0A2BA0098012240000023D0EB0202A3
:1004300063EBE073009821464FEAE074B8EB0000EC
:1004400061EB0401E9E783F000435BE781F00041E1
:1004500058E72DE9FE4F81EA030404F0004421F03F
:10046000004100944FF0000B23F0004350EA0104D8
:1004700002D052EA030404D10020014603B0BDE8D3
:10048000F08FC3F30A54C1F30A552C44A4F2F33499
:100490000194A0FB0254C1F3130141F48011C3F392
:1004A000130343F4801301FB024400FB034E840A50
:1004B000970A44EA815447EA8357A4FB07680295E8
:1004C0008D0A05FB07854FEA932C04FB0C54270586
:1004D000029D4FEA065847EA1637B5EB08056EEB62
:1004E000070C870E920E47EA811742EA8312A7FB98
:1004F0000201B6EB0B0164EB00042B0D43EA0C3355
:100500005E1844EB1C50DA465146E7FB0201C5F386
:1005100013044FEA0B3343EA14534FEA0432019CAD
:1005200043EA0603A4F10C040294009CCDE900B454
:1005300000F027FAA2E72DE9F04D81EA030404F068
:10054000004B21F0004514464FF0000A23F0004113
:1005500050EA050220D054EA01021DD0C5F30A5723
:100560000246C5F31303C1F31300C1F30A5640F466
:10057000801543F48013A7EB0608101BD64608F23B
:10058000FD3873EB050002D308F1010801E0921871
:100590005B41B8F1000F03DA00200146BDE8F08DA1
:1005A00000204FF48011064684460EE0171B73EBC3
:1005B000050705D3121B63EB050306434CEA010C48
:1005C00049084FEA300092185B4150EA0107EDD12B
:1005D00052EA030012D082EA040083EA05010843CC
:1005E00003D100224FF0004308E0101BAB4102D2C0
:1005F0000122002302E06FF0010253101AEB060003
:100600004CEB085110EB0A0041EB0B01BDE8F04D3B
:1006100000F0AAB9C10F80EAE0700844CA07962327
:10062000002100F074B996230022114600F06FB942
:100630000EB5C10F80EAE0700844CA07002140F2FD
:1006400033438DE80E000A460B4600F09AF903B0DA
:1006500000BD0EB540F2334102910021CDE90011F9
:100660000A460B4600F08DF903B000BD00F00042D1
:1006700020F00040C10DC0F3160040F400007F29B7
:1006800001DA00207047962903DCC1F19601C840C9
:1006900001E096398840002AF4D04042704720F0AB
:1006A0000040C10DC0F3160040F400007F2901DABC
:1006B00000207047962903DCC1F19601C8407047BD
:1006C00096398840704770B5C1F30A5201F0004571
:1006D0000024C1F3130140F2FF3341F480119A4228
:1006E00001DA002070BD40F233439A42A2F2334255
:1006F00003DC524200F0E0F800E090402C43F1D0DF
:10070000404270BDC1F30A5210B5C1F3130140F26B
:10071000FF3341F480119A4201DA002010BD40F20B
:1007200033439A42A2F2334203DC524200F0C4F84F
:1007300010BD904010BD00F0004230F000400AD0E3
:10074000C10D01F56071C0F3160042EA0151C20803
:1007500040071143704700200146704730B500291B
:1007600004DB4FF00044404264EB0101002B04DB4A
:100770004FF00044524264EB03038B4208BF8242B5
:1007800030BD000030B5002904DB4FF0004440428A
:1007900064EB0101002B04DB4FF00044524264EB98
:1007A0000303994208BF904230BD000001F00043AE
:1007B00030B421F0004150EA010206D00A0DA2F542
:1007C0006072C1F31301002A02DC30BC00207047C4
:1007D000440F44EAC104C100E01830BC00EBC25031
:1007E00000F08CB8002801DBC0F10040002901DBDB
:1007F000C1F1004181427047002801DBC0F1004097
:10080000002901DBC1F100418842704730B50B4639
:10081000014600202022012409E021FA02F59D4230
:1008200005D303FA02F5491B04FA02F52844151E04
:10083000A2F10102F1DC30BD2DE9F05F0546002098
:1008400092469B4688460646814640241BE0284641
:1008500041464746224600F02FF853465A46C01AF2
:10086000914110D311461846224600F016F82D1A71
:1008700067EB01084F4622460120002100F00DF8E9
:1008800017EB00094E41201EA4F10104DFDC4846AD
:1008900031462A464346BDE8F09F202A04DB203A31
:1008A00000FA02F1002070479140C2F1200320FAC3
:1008B00003F3194390407047202A04DB203A21FAC1
:1008C00002F00021704721FA02F3D040C2F1200269
:1008D0009140084319467047202A06DBCB17203A7F
:1008E00041FA02F043EAE07306E041FA02F3D04035
:1008F000C2F1200291400843194670470029A8BF61
:100900007047401C490008BF20F00100704710B438
:10091000B0FA80FC00FA0CF050EA010404BF10BCED
:10092000704749B1CCF1200421FA04F411FA0CF11A
:1009300018BF012121430843A3EB0C01CB1D010685
:10094000000A002BBEBF002010BC704700EBC35054
:1009500010440029A4BF10BC7047401C490008BFC8
:1009600020F0010010BC704710B5002B08DA401CC5
:1009700041F1000192185B411A4301D120F00100BE
:1009800010BD2DE9F04D92469B4611B1B1FA81F2AE
:1009900002E0B0FA80F220329046FFF77EFF044674
:1009A0000F4640EA0A0041EA0B0153465A46084303
:1009B00003D120463946BDE8F08D114653EA0100C7
:1009C00015D0C8F140025046FFF776FF05460E46A7
:1009D000504659464246FFF760FF084301D00120C8
:1009E00000E00020054346EAE0762C4337430A98AE
:1009F0004FEA4453A0EB08004FEAD4240A304FF0EA
:100A0000000244EA47544FEAD72502D500200146A8
:100A1000D1E7010510196941DDE90845001969416F
:100A2000BDE8F04DA0E770B521F0004303430CD0C2
:100A3000C1F30A550024D5EB040564EB0403D61773
:100A4000AD1AB34102DB0020014670BD201841EB16
:100A5000025170BD2DE9F04D00231A461B1A8A4140
:100A600003DB00200146BDE8F08DC1F30A52C1F35B
:100A7000130141F480154FF0000BD10702D100188B
:100A80006D41521E0027044640F2FF11384601EB2B
:100A9000620A3E468046024600204FF48011FFF76E
:100AA0000BFFC2197141BB1846EB0100B4EB030CFC
:100AB00075EB000C04D3E41A65EB000517460E46EF
:100AC000241908F101006D4180463428E3DDF9194D
:100AD00046EB0600091BA84103D24FF0FF32134634
:100AE00001E0002213461BEB070046EB0A51BDE86C
:100AF000F04DFFF739BFC1F30A52C1F3130140F2C1
:100B0000FF3341F480119A4202DA00200146704717
:100B100040F233439A42A2F2334202DC5242FFF7E0
:100B2000CBBEFFF7BABE0000064C074D06E0E068FA
:100B300040F0010394E8070098471034AC42F6D324
:100B4000FFF7FAFA6CF100088CF1000870B501EBC0
:100B5000020410F8015B15F0070301D110F8013B06
:100B60002A1106D110F8012B03E010F8016B01F8EF
:100B7000016B5B1EF9D12B0705D40023521E0FD445
:100B800001F8013BFAE710F8013B02F10202A1EB88
:100B9000030303E013F8015B01F8015B521EF9D572
:100BA000A142D6D3002070BD10B50121084602F045
:100BB000EFFD01214FF4047002F01AFE10BD10B5D4
:100BC000FFF7F2FF00F002F810BD000000B591B091
:100BD000364800F0C7FB364806903648079000209C
:100BE00008906420099000200A9080200B9040001B
:100BF0000C9080000D9020200E9000020F9000209D
:100C0000109006A9294800F053FC0121274800F064
:100C10009DFB27484C3800F07FF800200190012010
:100C20008DF808008DF809004FF460200390002033
:100C3000049001208DF8140001A91D484C3800F0E3
:100C4000ADF84FF4004002F097FD07230422102175
:100C500017484C3800F0CAF8012115484C3800F00C
:100C600036F8012000F034F9012111484C3800F029
:100C700023F80F484C3800F015F900BF0C484C38E9
:100C800000F082F80028F9D109484C3800F01AF930
:100C900000BF07484C3800F06DF80028F9D1012159
:100CA00003484C3800F003F911B000BD08000240C1
:100CB0004C240140A802002021B1826842F00102C8
:100CC000826003E0826822F001028260704721B1F5
:100CD000826842F48072826003E0826822F480724B
:100CE0008260704770B509F0B7F80748C1680748D7
:100CF000FFF78CFA05460649FFF7C4FA0446054992
:100D0000FFF732FA70BD00001C01002000C0DD4476
:100D10000000A0400000C84110B5044612488442BB
:100D200008D10121401502F073FD0021601502F089
:100D30006FFD17E00D48844208D10121001502F033
:100D400067FD0021201502F063FD0BE00848844296
:100D500008D10121C80302F05BFD00214FF40040DF
:100D600002F056FD10BD00000024014000280140A3
:100D7000003C0140014600208A6812F0040F01D0B7
:100D8000012000E000207047014600208A6812F030
:100D9000080F01D0012000E00020704730B5024666
:100DA0000020002350680F4C20400D790C6844EA65
:100DB00005242043506090680B4C2040D1E9025438
:100DC0002C434D7944EA450420439060D06A20F4D6
:100DD00070000C7C641EE4B2234340EA0350D062EE
:100DE00030BD0000FFFEF0FFFDF7F1FFF0B5044657
:100DF0000D4600200021092D11DDE068A5F10A064D
:100E000006EB4607072606FA07F18843A5F10A060E
:100E100006EB460603FA06F10843E0600CE02069A1
:100E200005EB4507072606FA07F1884305EB45065B
:100E300003FA06F108432061072A0FDA606B561E99
:100E400006EB86071F2606FA07F18843561E06EBB7
:100E5000860605FA06F10843606322E00D2A0FDAE0
:100E6000206BD61F06EB86071F2606FA07F188437C
:100E7000D61F06EB860605FA06F10843206310E04C
:100E8000E06AA2F10D0606EB86071F2606FA07F1B7
:100E90008843A2F10D0606EB860605FA06F1084323
:100EA000E062F0BD816841F008018160704721B1C6
:100EB000826842F4A002826003E0826822F4A00209
:100EC00082607047816841F00401816070470000D2
:100ED00030B10749096841F40001054A116005E095
:100EE0000349096821F40001014A116070470000BC
:100EF0000824014010B5FF2000F02DF80446552CC1
:100F000001D1002010BD5521FF2000F065F8FF2021
:100F100000F021F80446552C01D10020F2E7012011
:100F2000F0E710B500F002FF10BD2DE9F0410746D3
:100F30000C460026002509E036023919491B491ED6
:100F400088B200F008F80644681CC5B2A542F3DB7D
:100F50003046BDE8F08170B50446002600F084FEFE
:100F60002546E11704EB11610912A02202EB4101B1
:100F7000C8B200F049FE00F0AFFEE11704EB1161CA
:100F80000912A4EB0121C8B200F03EFE00F0A4FE5D
:100F900000F06AFEA12000F037FE00F09DFE002068
:100FA00000F0DEFD064600F07BFE304670BD2DE908
:100FB000F04105460E461746002409E0E20026FAF5
:100FC00002F2D1B22A1990B200F006F8601CC4B245
:100FD000BC42F3DBBDE8F08170B504460E4600F07C
:100FE00043FE2546E11704EB11610912A02202EB32
:100FF0004101C8B200F008FE00F06EFEE11704EBFC
:1010000011610912A4EB0121C8B200F0FDFD00F04E
:1010100063FE304600F0F8FD00F05EFE00F040FE9A
:101020000A2007F04DFB70BD10B5012002F000FC56
:10103000002002F0FDFB10BD08B501460020009025
:10104000034800900098084400900098008808BD6C
:10105000006C004008B500220092044A0092009AF9
:1010600002440092009A116008BD0000006C00402C
:1010700010B588B00446012C2FD140F2E730ADF80E
:1010800018004720ADF814000020ADF81A00ADF8A4
:10109000160005A9A00703F035FD6020ADF8040097
:1010A0000120ADF806004FF4FA70ADF80A000020F8
:1010B000ADF80C0001A9A00703F068FC0821C806E0
:1010C00003F0B6FC00208DF81C000121880703F016
:1010D00041FB0121880703F04FFB022C2ED14FF476
:1010E000FA70ADF818004720ADF814000020ADF8F4
:1010F0001A00ADF8160005A9600703F003FD602093
:10110000ADF804000120ADF80600FA20ADF80A00A1
:101110000020ADF80C0001A9600703F037FC08219E
:10112000C80603F085FC00208DF81C00012188070B
:1011300003F010FB0121880703F01EFB032C30D1C4
:101140004FF4A770ADF818004720ADF81400002048
:10115000ADF81A00ADF8160005A94FF0804003F075
:10116000D1FC6020ADF804000120ADF80600A720F6
:10117000ADF80A000020ADF80C0001A94FF0804046
:1011800003F004FC0821C80603F052FC00208DF88F
:101190001C000121880703F0DDFA0121880703F014
:1011A000EBFA042C2DD1F920ADF818004720ADF84A
:1011B00014000020ADF81A00ADF8160005A92007AC
:1011C00003F0A0FC6020ADF804000120ADF806009B
:1011D0007D20ADF80A000020ADF80C0001A9200721
:1011E00003F0D4FB0821C80603F022FC00208DF890
:1011F0001C000121880703F0ADFA0121880703F0E4
:10120000BBFA052C2DD1C720ADF818004720ADF84A
:1012100014000020ADF81A00ADF8160005A9A007CB
:1012200003F070FC6020ADF804000120ADF806006A
:101230006420ADF80A000020ADF80C0001A9A00759
:1012400003F0A4FB0821C80603F0F2FB00208DF890
:101250001C000121880703F07DFA0121880703F0B3
:101260008BFA24B900214FF0804003F085FA08B0D2
:1012700010BD000000B589B00121084602F098FABF
:101280000121042002F0B4FA0220ADF82000182059
:101290008DF8230003208DF8220008A91B4800F0D8
:1012A00087FB40F2E730ADF818004720ADF8140096
:1012B0000020ADF81A00ADF8160005A94FF08040E7
:1012C00003F020FC6020ADF804000120ADF806001A
:1012D0004FF4FA70ADF80A000020ADF80C0001A937
:1012E0004FF0804003F052FB0821C80603F0A0FB3A
:1012F00000208DF81C000121880703F02BFA002143
:101300004FF0804003F038FA09B000BD00080140FA
:1013100000BFFEE770B50025002413E00A4800680E
:1013200018B1681CC5B2002405E0601CC4B2032CCF
:1013300001DD002070BD1E2007F0C2F9642D01DB25
:101340000120F7E7EAE700000001214221B102682D
:1013500042F00102026004E002684FF6FE731A4098
:101360000260704701684FF6FE7211400160002173
:10137000016041608160C1604B49884208D14A499F
:101380000839496841F00F01474A083A51608AE03C
:1013900045491431884208D143490839496841F028
:1013A000F001414A083A51607DE03F4928318842C6
:1013B00008D13D490839496841F470613A4A083A10
:1013C000516070E038493C31884208D136490839CB
:1013D000496841F47041344A083A516063E0324947
:1013E0005031884208D130490839496841F47021A8
:1013F0002D4A083A516056E02B496431884208D1A1
:1014000029490839496841F47001274A083A51606E
:1014100049E025497831884208D12349083949688B
:1014200041F07061204A083A51603CE01F4988420F
:1014300006D1011F096841F00F01021F116032E05F
:101440001A491431884208D11849091F096841F026
:10145000F001164A121F116025E014492831884214
:1014600008D11249091F096841F470610F4A121F1F
:10147000116018E00D493C31884208D10B49091F21
:10148000096841F47041094A121F11600BE00749D5
:101490005031884207D10549091F096841F470217C
:1014A000024A121F116070470800024008040240FF
:1014B00010B50022026847F6F0739A430C6A8B68F5
:1014C00023430C6923434C6923438C692343CC6930
:1014D00023434C6A23438C6A23431A430260CB683C
:1014E00043600B6883604B68C36010BD10B5002477
:1014F00000F06AF804E0601CC4B2012007F0FEF8B6
:101500000D48006808B1C82CF5DBC82C01DB0120B0
:1015100010BD002404E0601CC4B2012007F0EEF806
:101520000548006808B9F02CF5DBF02C01DB012040
:10153000EEE70020ECE70000140121422DE9F84F0E
:1015400000F0D8F800F0C0F8FFF7D0FFCC2000F092
:10155000DDF8BE2000F0DAF800F0A4F8834600F0D1
:10156000A1F80446072C08DDE043C4B26FEA0B0083
:1015700000F0FF0B4FF0000A01E04FF0010AA14616
:101580004FEA09200FFA80F909EB0B000FFA80F9F6
:101590004846FFF73FF80090FFF7CDF807460022D6
:1015A000084BFEF756FF0546FFF78DF80FFA80F956
:1015B000BAF1000F02D04846BDE8F88FC9F100002B
:1015C00000B2F9E70000E43F08B50121042002F071
:1015D0000FF92020ADF8000028208DF8030003202B
:1015E0008DF802006946024800F0E2F908BD0000EB
:1015F0000008014008B50121042002F0F9F820207C
:10160000ADF8000010208DF8030003208DF80200D3
:101610006946024800F0CCF908BD0000000801400E
:1016200008B50121042002F0E3F82020ADF8000005
:1016300010208DF8030003208DF80200694606484B
:1016400000F0B6F92021044800F046FA00F03CF81A
:10165000FFF74CFF08BD00000008014010B5FFF780
:10166000C9FF00200C4908604FF0020007F046F85F
:1016700001200A49C1F89401FFF7A6FF0C2007F0EA
:101680003DF80748006808B1012400E0002432203A
:1016900007F034F8204610BD940121420000214299
:1016A0001401214270B50026012508E0FFF7D6FF9E
:1016B0000446E00140EA6600C6B2681CC5B2082DC7
:1016C000F4DD304670BD000010B5FFF793FF002039
:1016D0000649086040F2EE2007F010F801200449A6
:1016E000C1F894010F2007F009F810BD94012142C0
:1016F0000000214210B5FFF7E7FFFFF7F7FECC200F
:1017000000F004F8442000F001F810BD70B5044664
:10171000FFF770FF012522E004F00106641076B1A6
:101720000020104908604FF0020006F0E7FF01209A
:101730000D49C1F894013C2006F0E0FF0DE00020C7
:10174000084908604FF03C0006F0D8FF0120064928
:10175000C1F89401022006F0D1FF681CC5B2082D23
:10176000DADD70BD94012142000021427047000083
:1017700010B504464FF0E020006920F004004FF05F
:10178000E0210861E11704EB5171C910084A11709A
:101790001046007800EB4001C1EBC0104FF6FF711E
:1017A00001EAC0000349088002F0CAFC10BD000035
:1017B0000C0100200E0100202DE9F04306460F46E3
:1017C0009046002445460320A0EB48093CE07A1BE4
:1017D00091B2321990B200F0C7FC3A1B91B2721963
:1017E00090B200F0C1FC3A1991B2721990B200F0B7
:1017F000BBFC7A1991B2321990B200F0B5FC7A199B
:1018000091B2321B90B200F0AFFC3A1991B2721B48
:1018100090B200F0A9FC7A1B91B2321B90B200F09A
:10182000A3FC3A1B91B2721B90B200F09DFC641CA9
:10183000B9F1000F03DAA000801D814404E0601BB1
:1018400080000A3081446D1EAC42C0DDBDE8F083EB
:1018500010B5012000F006F8FFF75CFD08B102F0BA
:10186000D8FB10BD01490860704700001404014016
:1018700051B14FF0204252F8202042F001024FF0C7
:10188000204343F8202009E04FF0204252F8202066
:10189000034B1A404FF0204343F8202070470000CC
:1018A000FEFF0F00D0E901121143C2681143026923
:1018B00011434269114382691143C2691143026AAB
:1018C0001143426A1143826A1143C26A1143026B97
:1018D00011434FF02043026843F822108168082921
:1018E00008D11A46016852F8211041F040010268FF
:1018F00043F82210416B0968426B526841EA0211B9
:10190000426B926841EA0221426B928941EA0241AC
:10191000426B128A41EA0251426B127D41EA026136
:10192000426B926911430268521C4FF0204343F806
:101930002210C16AB1F5804F1AD1816B0968826BA0
:10194000526841EA0211826B926841EA0221826B7D
:10195000128A41EA0251826B127D41EA0261826B76
:1019600092691143026803EB8202C2F8041108E095
:101970006FF070414FF02043026803EB8202C2F81F
:101980000411704708B50121982001F031FF0820AB
:10199000ADF8000010208DF8030003208DF8020040
:1019A0006946024800F004F808BD0000001001403C
:1019B0002DE9F041024600250026002000230024E6
:1019C000002791F803C00CF00F0591F803C01CF03C
:1019D000100F03D091F802C04CEA050591F800C041
:1019E000BCF1000F31D0146800202BE04FF0010C47
:1019F0000CFA00F3B1F800C00CEA03069E4220D1B5
:101A000083004FF00F0C0CFA03F7BC4305FA03FCFC
:101A10004CEA040491F803C0BCF1280F06D14FF042
:101A2000010C0CFA00FCC2F814C00AE091F803C0E3
:101A3000BCF1480F05D14FF0010C0CFA00FCC2F8C4
:101A400010C0401C0828D1D31460B1F800C0BCF10C
:101A5000FF0F34DD546800202EE000F1080C4FF039
:101A6000010808FA0CF3B1F800C00CEA03069E4224
:101A700021D183004FF00F0C0CFA03F7BC4305FA99
:101A800003FC4CEA040491F803C0BCF1280F05D113
:101A900000F1080C08FA0CF8C2F8148091F803C0A1
:101AA000BCF1480F07D100F1080C4FF0010808FA0B
:101AB0000CF8C2F81080401C0828CED35460BDE852
:101AC000F0810246002093680B4201D0012000E023
:101AD00000207047416170470161704700BFFEE719
:101AE00010B508210D48FFF7F5FF00F079F8102137
:101AF0000A48FFF7EFFF022006F000FE0821074822
:101B0000FFF7EAFF052006F0F9FD08210348FFF77B
:101B1000E1FF10210148FFF7DFFF10BD0008014081
:101B200010B508210D48FFF7D5FF00F059F8102136
:101B30000A48FFF7D1FF022006F0E0FD0821074820
:101B4000FFF7CAFF052006F0D9FD08210348FFF77B
:101B5000C1FF10210148FFF7BDFF10BD0008014083
:101B600070B505460026002400F028F800BF18E0F4
:101B700008211148FFF7AEFF022006F0BFFD082143
:101B80000D48FFF7A9FF6006040E10210A48FFF771
:101B900098FF08B1601CC4B2022006F0AFFD701CB3
:101BA000C6B2082EE4DB15B9FFF7BAFF01E0FFF774
:101BB00097FF204670BD00000008014008B50121D4
:101BC0000C2001F015FE1020ADF8000048208DF823
:101BD000030069460148FFF7EBFE08BD000801401D
:101BE00008B50121082001F003FE1020ADF8000027
:101BF0008DF8030003208DF8020069460148FFF7C5
:101C0000D7FE08BD0008014070B504460025FFF767
:101C1000E7FF08211348FFF75DFF00BF1EE004F057
:101C20008000002804DD10210E48FFF755FF03E077
:101C300010210C48FFF74EFF6006040E08210948EA
:101C4000FFF74AFF022006F059FD08210548FFF77B
:101C500041FF022006F052FD681CC5B2082DDEDBF4
:101C600070BD00000008014010B5FFF7B9FF082162
:101C70000A48FFF731FF10210848FFF72DFF052024
:101C800006F03CFD10210548FFF724FF062006F072
:101C900035FD08210148FFF71DFF10BD0008014078
:101CA00010B5FFF79DFF08210A48FFF713FF102129
:101CB0000848FFF70FFF08210648FFF70DFF062031
:101CC00006F01CFD10210348FFF706FF062006F072
:101CD00015FD10BD0008014010B50024FFF76EFF90
:101CE00010211148FFF7F8FE012006F007FD08213A
:101CF0000D48FFF7F1FE012006F000FD07E0601C33
:101D0000C4B2FA2C03DDFFF7CBFF012010BD102178
:101D10000548FFF7D6FE0028F1D108210248FFF759
:101D2000D9FE0020F2E700000008014008B50121BB
:101D3000082001F05DFD1820ADF8000010208DF89E
:101D4000030003208DF8020069460648FFF730FEC5
:101D500008210448FFF7C0FE10210248FFF7BCFE2F
:101D600008BD00000008014010B5FFF7DFFF0021AB
:101D7000022004F00EF910BD0146CA1701EB927261
:101D80009210B1EB820212D1642091FBF0F200FBC1
:101D9000121050B94FF4C87091FBF0F200FB121012
:101DA00008B9012070470020FCE70120FAE7002075
:101DB000F8E7000008B501214FF4827001F018FD2A
:101DC0004FF48070ADF8000048208DF8030069469C
:101DD0000648FFF7EDFD0120ADF8000028208DF842
:101DE000030069460248FFF7E3FD08BD00200140FB
:101DF000000801402DE9F84F06468A4614469B46E6
:101E0000009655E0002550E0C5EBC50000EB8000D2
:101E10002A49085C2178884245D1C5EBC50000EB12
:101E20008000264908444078617888423BD10027E9
:101E300037E0C5EBC50000EB800020490844C01C1A
:101E400010F807904FF0000825E019F0800F04D03B
:101E50005146304600F088F909E019490A9808808F
:101E60005146304600F080F91548A0F800B04FEA1E
:101E700049604FEA1069701C86B20098301A102829
:101E800005D1009E0AF101001FFA80FA06E008F170
:101E9000010000F0FF08B8F1080FD6DB00BF781C86
:101EA000C7B2202FC5DB681C85B2292DACD3A41C7A
:101EB00020780028A6D1BDE8F88F00000CC90008E2
:101EC000C00000202DE9F84F06468A4614469B467E
:101ED000009655E0002550E0C5EB051000EB8000B2
:101EE0002A49085C2178884245D1C5EB051000EBF2
:101EF0008000264908444078617888423BD1002719
:101F000037E0C5EB051000EB800020490844C01CF9
:101F100010F807904FF0000825E019F0800F04D06A
:101F20005146304600F020F909E019490A98088026
:101F30005146304600F018F91548A0F800B04FEAB5
:101F400049604FEA1069701C86B20098301A182850
:101F500005D1009E0AF101001FFA80FA06E008F19F
:101F6000010000F0FF08B8F1080FD6DB00BF781CB5
:101F7000C7B2482FC5DB681C85B25B2DACD3A41C4F
:101F800020780028A6D1BDE8F88F0000A7CE000871
:101F9000C000002070B50446002609480588408826
:101FA00045430021084600F001FC00F0FBFD00BFA6
:101FB00002E004480480761CAE42FAD370BD0000F3
:101FC000900200200008006C2DE9FC470746884677
:101FD00015461E46DDE90A9A00240F2E01DDBDE8F4
:101FE000FC87002415E015F814008DF8040060004B
:101FF000401C285C8DF80500102101FB047188B29B
:102000004B4601AA4146CDF800A0FFF7F3FE601C45
:10201000C4B2B442E7DB00BFE1E72DE9FC47074665
:10202000884615461E46DDE90A9A00240A2E01DD7F
:10203000BDE8FC87002415E015F814008DF80400B5
:102040006000401C285C8DF80500182101FB04711C
:1020500088B24B4601AA4146CDF800A0FFF732FFF7
:10206000601CC4B2B442E7DB00BFE1E710B5044630
:1020700074B900200F498871F02008804FF4A070D7
:1020800048802C2008812A2048812B2088810DE05F
:102090000120084988714FF4A0700880F020488022
:1020A0002C2008812A2048812B208881002000F0E4
:1020B000ABFA10BD900200202DE9FF4F84B081469D
:1020C0008A460020039002900698A0EB0905079825
:1020D000A0EB0A06CDF80490CDF800A0002D01DD9C
:1020E000012705E00DB9002702E04FF0FF376D42F0
:1020F000002E02DD4FF0010806E016B94FF000088F
:1021000002E04FF0FF387642B54201DD2C4600E098
:1021100034464FF0000B21E0009A91B2019A90B240
:1021200000F022F80398284403900298304402906B
:102130000398A04205DD0398001B039001983844E2
:1021400001900298A04205DD0298001B02900098C1
:10215000404400900BF101001FFA80FB601C834596
:10216000DADD08B0BDE8F08F30B504460D462946EB
:10217000204600F01BFB00F015FD024800880249D4
:10218000088030BDC00000200008006CF0B5044697
:102190000D4616461F462B46324629462046FFF777
:1021A0008BFF3B46224629462046FFF785FF3B46EC
:1021B000324639462046FFF77FFF3B4632462946E6
:1021C0003046FFF779FFF0BD10B503460C460D49C8
:1021D000488900F0E1FC181200F0D8FCD8B200F0F9
:1021E000D5FC0849888900F0D7FC201200F0CEFC0D
:1021F000E0B200F0CBFC0348008903490880881C4A
:10220000028010BD90020020FE07006C2DE9FC4FFB
:1022100005460E4617469846DDF82C9000200190A2
:1022200027488088A0F5D041043929D124488079F5
:10223000012825D1AB46354621480088C01B401EE9
:1022400086B247461E480088A0EB0B00401E1FFACE
:1022500080F800201A4988712A2048812B20888123
:1022600043463A4631462846CDF80090FFF7CEFF68
:102270000120134988712B2048812A2088811CE085
:10228000781B401C80B20190344614E02146284659
:1022900000F08CFA00F086FC4FF0000A06E0484699
:1022A00000F074FC0AF101001FFA80FA01988245DF
:1022B000F5DB601C84B24445E8DDBDE8FC8F00001E
:1022C0009002002000B59FB00121080201F060FAE1
:1022D000012140F2691001F08BFA4CF23370ADF835
:1022E000780018208DF87B0003208DF87A001EA955
:1022F000BB48FFF75DFB4FF68070ADF87800182003
:102300008DF87B0003208DF87A001EA9B548FFF7F1
:102310004FFB41F20100ADF8780018208DF87B00EA
:1023200003208DF87A001EA9AF48FFF741FB01207A
:102330000890002009900F200A9000200B900C902C
:102340000D900E90019002900320039000200490C5
:1023500005900690079006200F9000201090119095
:102360001020129000201390159014901690179042
:102370004FF480501890002019904FF480401A902C
:1023800000201B9008A81C9001A81D900FA8FFF723
:1023900089FA01210620FFF76BFA49F2413093498F
:1023A0008880CF2000F0F8FB002000F0EFFBC12078
:1023B00000F0ECFB302000F0E9FBED2000F0ECFB3E
:1023C000642000F0E3FB032000F0E0FB122000F0AB
:1023D000DDFB812000F0DAFBE82000F0DDFB85204A
:1023E00000F0D4FB102000F0D1FB7A2000F0CEFBEF
:1023F000CB2000F0D1FB392000F0C8FB2C2000F0EE
:10240000C5FB002000F0C2FB342000F0BFFB02201F
:1024100000F0BCFBF72000F0BFFB202000F0B6FB73
:10242000EA2000F0B9FB002000F0B0FB002000F033
:10243000ADFBC02000F0B0FB1B2000F0A7FBC120CB
:1024400000F0AAFB012000F0A1FBC52000F0A4FBD6
:10245000302000F09BFB302000F098FBC72000F0FC
:102460009BFBB72000F092FB362000F095FB482044
:1024700000F08CFB3A2000F08FFB552000F086FB2B
:10248000B12000F089FB002000F080FB1A2000F052
:102490007DFBB62000F080FB0A2000F077FBA22035
:1024A00000F074FBF22000F077FB002000F06EFBE0
:1024B000262000F071FB012000F068FBE02000F016
:1024C0006BFB0F2000F062FB2A2000F05FFB28204E
:1024D00000F05CFB082000F059FB0E2000F056FBDA
:1024E000082000F053FB542000F050FBA92000F01E
:1024F0004DFB432000F04AFB0A2000F047FB0F2071
:1025000000F044FB002000F041FB002000F03EFB07
:10251000002000F03BFB002000F038FBE12000F041
:102520003BFB002000F032FB152000F02FFB1720B2
:1025300000F02CFB072000F029FB112000F026FB07
:10254000062000F023FB2B2000F020FB562000F09B
:102550001DFB3C2000F01AFB052000F017FB1020AB
:1025600000F014FB0F2000F011FB3F2000F00EFBE9
:102570003F2000F00BFB0F2000F008FB2B2000F0A9
:102580000BFB002000F002FB002000F0FFFA01200E
:1025900000F0FCFA3F2000F0F9FA2A2000F0FCFAE3
:1025A000002000F0F3FA002000F0F0FA002000F024
:1025B000EDFAEF2000F0EAFA112000F0EDFA7820B1
:1025C00006F07EF8292000F0E7FA0020FFF74EFD24
:1025D00001F07EFD4FF6FF70FFF7DCFC1FB000BD81
:1025E000001401400018014000200140900200202A
:1025F00010B50246012000E050430B00A1F1010498
:10260000E1B2F9D110BD0000F0B505460024002765
:102610006548807901281ED163488088A0F5D041A3
:10262000043918D0082D15D2DFE805F00406080A91
:102630000C0E101206250DE007250BE0042509E01D
:10264000052507E0012505E0002503E0032501E05D
:10265000022500BF00BF54488088A0F513414139CE
:1026600005D051488088A0F5D041043974D1082D97
:102670001CD2DFE805F00406090C0F12151800BF84
:1026800014E044F0800411E044F040040EE044F013
:10269000C0040BE044F0200408E044F0600405E0CE
:1026A00044F0A00402E044F0E00400BF00BF36277D
:1026B00044F008042146384600F07EFA14F0200F5A
:1026C0000DD03948008838494988884214DA36489C
:1026D0000688408834490880084646800CE0324825
:1026E000008831494988884206DD2F48068840889D
:1026F0002D490880084646802B49488900F04CFA4D
:10270000002000F043FA002000F040FA2649098832
:10271000491EC1F30F2000F039FA23490978491EF8
:10272000C8B200F033FA2049888900F035FA002059
:1027300000F02CFA002000F029FA1B494988491EB4
:10274000C1F30F2000F022FA17498978491EC8B258
:1027500000F01CFA27E0FFE7082D1CD2DFE805F0A7
:1027600004070A0D0F12151844F0300413E044F06A
:10277000100410E044F020040DE000BF0BE044F032
:10278000380408E044F0280405E044F0180402E0AE
:1027900044F0080400BF00BF032744F480542146DE
:1027A000384600F009FAF0BD9002002000B502465C
:1027B0000B460A49488900F0EFF9101200F0E6F9DB
:1027C000D0B200F0E3F90549888900F0E5F9181264
:1027D00000F0DCF9D8B200F0D9F900BD9002002079
:1027E0002DE9FC4F0746894616461C46CDF8049055
:1027F0007248008800902046E31704EB5373DB1007
:1028000021464FEAE47C04EB5C7C4FEAEC0CB4EB31
:10281000CC0C02D04FF0010C01E04FF0000C6344EF
:10282000224604EBD27C4FEA6C0C03FB0CF303F062
:10283000FF08A6F12000C6B20B9800285FD1002542
:102840005AE0B8F10C0F07D106EB46005C4901EBEA
:10285000800010F805A014E0B8F1100F05D1594818
:1028600000EB061010F805A00BE0182C07D106EBC2
:10287000C600554901EB800010F805A001E0BDE855
:10288000FC8F4FF0000B31E01AF0800F06D04B4860
:10289000028849463846FFF797FC07E00B9828B9AD
:1028A0004A48028849463846FFF78EFC4FEA4A609C
:1028B0004FEA106A09F101001FFA80F944480088C4
:1028C000B84200DCDBE70198A9EB0000A04209D187
:1028D000DDF80490781C87B23D480088B84200DCDF
:1028E000CDE706E00BF1010000F0FF0BBBF1080F94
:1028F000CADB00BF681CC5B24545A2DB58E0002515
:1029000054E0B8F10C0F07D106EB46002C4901EB5F
:10291000800010F805A013E0B8F1100F05D1294888
:1029200000EB061010F805A00AE0182C07D106EB02
:10293000C600254901EB800010F805A000E09EE7E5
:102940004FF0000B2CE01AF0800F03D049463846B8
:10295000FFF70AFC4FEA4A604FEA106A09F10100EA
:102960001FFA80F91A484088B84203DC13490098DE
:10297000088084E70198A9EB000040450CD1DDF800
:102980000490781C87B212480088B84203DC0B49D7
:102990000098088073E706E00BF1010000F0FF0BE0
:1029A000BBF1080FCFDB00BF681CC5B2A542A8DB96
:1029B00002490098088000BF61E70000C0000020C5
:1029C0004CB10008C0B50008B0BB0008C200002030
:1029D000900200202DE9FF4F81B0074691461E4628
:1029E0000E9D4FF0000A002439E0301B401EC1B29A
:1029F0000A20FFF7FDFDB9FBF0F00A21B0FBF1F270
:102A000001FB1208BAF1000F16D1701EA04213DDAF
:102A1000B8F1000F0ED10020AB4605EBDB71491079
:102A200001FB0471009088B22B4620220299FFF727
:102A3000D7FE12E04FF0010A0020AB4605EBDB7138
:102A4000491001FB0471009088B208F13001CAB24C
:102A50002B460299FFF7C4FE00BF601CC4B2B4420B
:102A6000C3DB05B0BDE8F08F2DE9F84704460D46FD
:102A700090469946DDE9096704F0FF0A08EB040077
:102A80001FFA80F809EB05001FFA80F916E04445AB
:102A900002DB5446A81985B24D4500DB14E0002046
:102AA00000903A78334629462046FFF799FE304693
:102AB00006EBD07104EB61018CB27F1C38787E2864
:102AC00002DC38782028E2DA00BFBDE8F8872DE97B
:102AD000FF4F82B0064692461F46DDE90F480020B0
:102AE000019000254DE0781B401EC1B20A20FFF77F
:102AF0007FFDBAFBF0F00A21B0FBF1F201FB1209F5
:102B0000019850BB781EA84227DDB9F1000F22D1F1
:102B100018F0800F0FD008F00100A34604EBDB7122
:102B2000491001FB0561009088B2234630220399C9
:102B3000FFF756FE0EE008F00100A34604EBDB7140
:102B4000491001FB0561009088B2234620220399B9
:102B5000FFF746FE13E00120019008F00100A346B4
:102B600004EBDB71491001FB0561009088B209F1AB
:102B70003001CAB223460399FFF732FE00BF681C3A
:102B8000C5B2BD42AFDB06B0BDE8F08F0149088099
:102B9000704700000008006C014908807047000081
:102BA000FE07006C02480089024908807047000057
:102BB00090020020FE07006C024A1080921C1180D7
:102BC00070470000FE07006C08B50121102000F0DE
:102BD0000FFE0F20ADF8000010208DF80300032039
:102BE0008DF8020069460448FEF7E2FE0F21024814
:102BF000FEF772FF08BD0000001001402DE9F74FFD
:102C00008CB00C46914600200B900A9075494846BE
:102C1000FDF7E8FD30D800214846FDF7EDFD2BD843
:102C20002046FDF716FDCDE904014846FDF783FD7A
:102C30006D4A6E4BCDE90001FDF70BFC00226C4B99
:102C4000CDE90201FDF777FC824607F0DBFB074682
:102C5000DDE90423FDF7FDFBCDE906010C98FDF746
:102C6000F8FC0546DDE90623FDF74CFBCDE908013C
:102C7000FDF79CFD0B90A2E05A494846FDF7BCFDCC
:102C800030D25C494846FDF7ADFD2BD82046FDF714
:102C9000E0FCCDE904014846FDF74DFD524A534B97
:102CA000CDE90001FDF7D5FB0022514BCDE9020132
:102CB000FDF741FC824607F0A5FB0746DDE904234A
:102CC000FDF7C7FBCDE906010C98FDF7C2FC0546F0
:102CD000DDE90623FDF716FBCDE90801FDF766FDEA
:102CE0000B906CE043494846FDF786FD31D24249DE
:102CF0004846FDF777FD2CD82046FDF7AAFCCDE924
:102D000006014846FDF717FD374A384BCDE900016B
:102D1000FDF79FFB07460022354BFDF70CFCCDE984
:102D2000020107F06FFBCDE90401DDE90623FDF7A1
:102D300090FB05460E460C98FDF78BFC2A46334661
:102D4000CDE90801FDF7DEFA8246FDF72FFD0B9075
:102D500035E029494846FDF74FFD30D2274948461E
:102D6000FDF740FD2BD82046FDF773FC05460E46C7
:102D70004846FDF7E0FC07461B4A1C4BFDF769FB84
:102D800000221B4BCDE90001FDF7D5FBCDE9020187
:102D900007F038FB82462A463346FDF75AFBCDE959
:102DA00006010C98FDF755FCCDE90401DDE9062389
:102DB000FDF7A8FACDE90801FDF7F8FC0B900B9898
:102DC000FDF7B9FC074600220D4BFDF79BFA0546BF
:102DD000FDF779FC80B20A900A9800B20FB0BDE806
:102DE000F08F00000000B4424AD8124DFB21094088
:102DF0000080664000003443000087430000B44375
:102E00000000E03F2DE9F74F8CB00C4691460020C2
:102E10000B900A9075494846FDF7E4FC30D8002134
:102E20004846FDF7E9FC2BD82046FDF712FCCDE91A
:102E300004014846FDF77FFC6D4A6E4BCDE9000169
:102E4000FDF707FB00226C4BCDE90201FDF773FB98
:102E5000824605F0BBFB0746DDE90423FDF7F9FADE
:102E6000CDE906010C98FDF7F4FB0546DDE90623E4
:102E7000FDF7E9FACDE90801FDF798FC0B90A2E017
:102E80005A494846FDF7B8FC30D25C494846FDF740
:102E9000A9FC2BD82046FDF7DCFBCDE90401484610
:102EA000FDF749FC524A534BCDE90001FDF7D1FA39
:102EB0000022514BCDE90201FDF73DFB824605F0B2
:102EC00085FB0746DDE90423FDF7C3FACDE90601DA
:102ED0000C98FDF7BEFB0546DDE90623FDF7B3FAC6
:102EE000CDE90801FDF762FC0B906CE043494846D0
:102EF000FDF782FC31D242494846FDF773FC2CD8DD
:102F00002046FDF7A6FBCDE906014846FDF713FC78
:102F1000374A384BCDE90001FDF79BFA07460022FE
:102F2000354BFDF708FBCDE9020105F04FFBCDE97C
:102F30000401DDE90623FDF78CFA05460E460C98E0
:102F4000FDF787FB2A463346CDE90801FDF77BFAFA
:102F50008246FDF72BFC0B9035E029494846FDF7EA
:102F60004BFC30D227494846FDF73CFC2BD8204685
:102F7000FDF76FFB05460E464846FDF7DCFB0746AE
:102F80001B4A1C4BFDF765FA00221B4BCDE90001E3
:102F9000FDF7D1FACDE9020105F018FB82462A4679
:102FA0003346FDF756FACDE906010C98FDF751FBC3
:102FB000CDE90401DDE90623FDF745FACDE9080175
:102FC000FDF7F4FB0B900B98FDF7B5FB07460022CD
:102FD0000D4BFDF797F90546FDF775FB80B20A909A
:102FE0000A9800B20FB0BDE8F08F00000000B442B4
:102FF0004AD8124DFB21094000806640000034434E
:10300000000087430000B4430000E03F1CB54FF6CA
:10301000FF70FEF7BFFF0120674908704FF6FF7091
:103020004FF61F01042365A2CDE9001000214820BE
:10303000FEF7F3FF4FF6FF704FF61F01012362A268
:10304000CDE900104FF494716C20FEF7E6FF4FF6C7
:10305000FF701F2104235DA2CDE900104FF494718D
:103060009020FEF7DAFF4FF4784048231A463021CB
:1030700000901820FFF7CAF84FF4FC60782348222C
:10308000602100901820FFF7C1F84FF6E070A823E8
:103090004822902100901820FFF7B8F84FF607401B
:1030A000D8234822C02100901820FFF7AFF848F23B
:1030B0003040C3114822F02100901820FFF7A6F8F5
:1030C00077E0002002F072FC002872D0424880892C
:1030D00090280EDD40488089F0280ADA3E48C08AF0
:1030E000B0F5947F05DD3C48C08AB0F5A07F00DADA
:1030F00060E03948808918280EDD374880894828E3
:103100000ADA3548C08A302806DD3348C08A4828A4
:1031100002DA0120FDF7ACFF2F48808918280EDD68
:103120002D48808948280ADA2B48C08A602806DDA5
:103130002948C08A782802DA0220FDF799FF26483C
:10314000808918280EDD2448808948280ADA224818
:10315000C08A902806DD2048C08AA82802DA032009
:10316000FDF786FF1C48808918280EDD1A488089E3
:1031700048280ADA1848C08AC02806DD1648C08ADE
:10318000D82802DA0420FDF773FF13488089182835
:103190000FDD1148808948280BDA0F48C08AF028D3
:1031A00007DD0D48C08AB0F5847F02DA0520FDF7FF
:1031B0005FFF86E700BF1CBD1C000020B2A5B7C59D
:1031C000B8E8C7FA00000000D0A60000B7B5BBD829
:1031D000C9CFD2B300000000D000002000BFFEE73E
:1031E00010B5002002F0E2FB00282CD0022004F0F1
:1031F0005BF8CD488089002826DDCB48808960288F
:1032000022DAC948C08AB0F5947F1DDDC648C08A5D
:10321000B0F5A07F18DAC548C549097800EBC100B0
:103220004078C349087008460178C2A002F0C8FE81
:10323000BE48BF49097800EBC1004068C04908603A
:103240000846006880475EE1B7488089902826DDFF
:10325000B5488089F02822DAB348C08AB0F5947F57
:103260001DDDB148C08AB0F5A07F18DAAF48B0497B
:10327000097800EBC1008078AD49087008460178F4
:10328000ACA002F09DFEA948A949097800EBC10055
:103290004068AB49086008460068804733E1A948A8
:1032A0000078002876D1A84800780028FAD19E48F6
:1032B0008089482812DD9C488089C0280EDA9A4807
:1032C000C08A24280ADD9848C08A3C2806DA0220F1
:1032D00097490870012006F079F914E19248808935
:1032E000482812DD90488089C0280EDA8E48C08AAE
:1032F0003C280ADD8C48C08A542806DA03208C4911
:103300000870022006F062F9FDE0874880894828AD
:1033100012DD85488089C0280EDA8348C08A542887
:103320000ADD8148C08A6C2806DA042080490870CA
:10333000032006F04BF9E6E07B488089482812DD3F
:1033400079488089C0280EDA7748C08A6C280ADD5F
:103350007548C08A842806DA05207549087004205B
:1033600006F034F9CFE070488089482813DD6E48B4
:103370008089C0280FDA6C48C08A84280BDD6A482F
:10338000C08A9C2807DA062069490870052006F0E3
:103390001DF9B8E05BE064488089482812DD624886
:1033A0008089C0280EDA6048C08A9C280ADD5E4801
:1033B000C08AB42806DA07205D490870062006F0A6
:1033C00005F9A0E058488089482812DD56488089D0
:1033D000C0280EDA5448C08AB4280ADD5248C08A90
:1033E000CC2806DA082052490870072006F0EEF8CB
:1033F00089E04D488089482812DD4B488089C028E3
:103400000EDA4948C08ACC280ADD4748C08AE42839
:1034100006DA092046490870082006F0D7F872E05D
:103420004148808948286EDD3F488089C0286ADA93
:103430003D48C08AE42866DD3B48C08AFC2862DA41
:103440000A203B490870092006F0C0F85BE03D48BF
:103450000078012857D13C480078012853D13248E0
:10346000808948280FDD30488089C0280BDA2E4833
:10347000C08A242807DD2C48C08A3C2803DA0B20A8
:103480002B4908703AE02848808948280FDD2648F3
:103490008089C0280BDA2448C08A3C2807DD2248EE
:1034A000C08A542803DA0C202149087026E01E48FF
:1034B000808948280FDD1C488089C0280BDA1A480B
:1034C000C08A542807DD1848C08A6C2803DA0D200A
:1034D0001749087012E01448808948280EDD124808
:1034E0008089C0280ADA1048C08A6C2806DD0E4898
:1034F000C08A842802DA0E200D4908700C48017831
:1035000012A002F05DFD0F48007801280AD107489B
:103510000749097800EBC10040680949086008467E
:103520000068804710BD0000D0000020200000206F
:103530001F000020CBF7D2FDBAC53A25640A00006F
:10354000BC0000201C0000201D000020D7D3B2CBFF
:10355000B5A5CBF7D2FDBAC53A25640A0000000034
:1035600070B50546FEF780FB3C20FEF74DFBFEF7ED
:10357000B3FB0320FEF748FBFEF7AEFBFEF774FB40
:103580003D20FEF741FBFEF7A7FB00240CE0052CD5
:1035900004D10020FEF7E4FA285503E00120FEF7ED
:1035A000DFFA2855601CC4B2062CF0DBFEF778FB6E
:1035B00070BD704708B50121084600F019F94FF4B5
:1035C000A06000F083F81E208DF8000001208DF827
:1035D000010000208DF8020001208DF803006846EC
:1035E00000F03AF803208DF8000002208DF8010069
:1035F00000208DF8020001208DF80300684600F0DD
:103600002BF809208DF8000000208DF80100012022
:103610008DF802008DF80300684600F01DF81D20AB
:103620008DF8000001208DF801008DF802008DF862
:103630000300684600F010F825208DF800000220F5
:103640008DF8010001208DF8020000208DF80300A4
:10365000684600F001F808BD70B5002100230F2274
:10366000C4780CB3164C246804F4E064C4F5E06438
:10367000210AC1F10403CA40447804FA03F18478B2
:103680001440214309010F4C0678A155047804F039
:103690001F050124AC4005786D114FF0E02606EBC4
:1036A0008505C5F8004109E0047804F01F050124F0
:1036B000AC40054D0678761145F8264070BD0000F7
:1036C0000CED00E000E400E080E100E0024901438D
:1036D000024A1160704700000000FA050CED00E09E
:1036E000014908627047000000000E420A48006865
:1036F00040F00400084908600846006840F00200F5
:1037000008600648006840F004000449086000BFF3
:1037100000BF30BF704700000070004010ED00E0B7
:103720000149086070470000A0000E427047000089
:1037300086B000210CA30DCBCDE90423039000BF7C
:103740000EE00C48085C0DF8010003A8405C1DF871
:103750000120904202D0002006B07047481CC1B240
:103760000C29EEDB0120F7E7FFD80541503636196A
:10377000702443FFE9F7FF1F01460020034A506809
:1037800020F44040084350607047000000100240A1
:1037900029B1064A52690243044B5A6104E0034AC4
:1037A00052698243014B5A61704700000010024089
:1037B00029B1064AD2690243044BDA6104E0034AA4
:1037C000D2698243014BDA61704700000010024069
:1037D00029B1064A12690243044B1A6104E0034A04
:1037E00012698243014B1A617047000000100240C9
:1037F00029B1064A92690243044B9A6104E0034AE4
:1038000092698243014B9A617047000000100240A8
:1038100029B1064AD2680243044BDA6004E0034A45
:10382000D2688243014BDA6070470000001002400A
:103830000149086070470000400442420348406A62
:1038400040F080700149486270470000001002405B
:1038500030B500210022002400232D4D6D6805F0B5
:103860000C0121B1042905D0082923D105E0294DF7
:10387000056022E0274D05601FE0254D6D6805F4C9
:103880007012234D6D6805F48034022505EB9242D9
:103890001CB9214D554305600BE01D4D6D6815F4B5
:1038A000003F03D01C4D5543056002E0194D5543C0
:1038B000056002E0174D056000BF00BF144D6D6844
:1038C00005F0F0010909154D6B5C0568DD404560A8
:1038D0000F4D6D6805F4E061090A104D6B5C456899
:1038E000DD4085600A4D6D6805F46051C90A0B4DD5
:1038F0006B5C4568DD40C560054D6D6805F4404171
:10390000890B074D6B5CC568B5FBF3F5056130BDF0
:103910000010024000127A0000093D00070000205C
:103920001700002010B501460022002300204A1194
:10393000012A02D1094C236806E0022A02D1074C71
:10394000236A01E0054C636A01F01F0201249440E0
:103950001C4201D0012000E0002010BD00100240F8
:1039600000210A4A11700A4A82F82010012802D068
:10397000042808D103E00121044A117004E0052164
:10398000024A117000E000BF00BF704720100240E3
:103990000010024001490860704700003C044242A8
:1039A0000249096A0143014A11627047001002404E
:1039B000024909888143014A118070470428004068
:1039C00010B504460420FDF737FBA0420FD017A026
:1039D00002F0F6FA00F078F81CA002F0F1FA02F01A
:1039E00093F84AF2A5510420FDF734FB19E07B203F
:1039F000FFF798FF18B11BA002F0E2FA06E07A2068
:103A0000FFF790FF10B11FA002F0DAFA25A002F034
:103A1000D7FA00F01BFA0121084600F089F900F0FE
:103A20000BFAFFF70BFF02F0FBF810BD0D0A0A209E
:103A3000525443206E6F742079657420636F6E66F4
:103A40006967757265642E2E2E2E00000D0A2052B5
:103A5000544320636F6E666967757265642E2E2EFF
:103A60002E0000000D0A0A20506F776572204F6EFD
:103A7000205265736574206F636375727265642E7E
:103A80002E2E2E000D0A0A2045787465726E616C28
:103A9000205265736574206F636375727265642E5E
:103AA0002E2E2E000D0A204E6F206E656564207448
:103AB0006F20636F6E666967757265205254432E7E
:103AC0002E2E2E090A00000010B501214FF0C05023
:103AD000FFF76EFE0120FFF703FEFDF7A5FA0120B8
:103AE000FFF73EFF00BF4120FFF71CFF0028FAD080
:103AF0004FF48070FFF754FF0120FFF74BFF00F0F9
:103B0000A5F900F099F90121084600F011F900F03B
:103B100093F947F6FF7000F07FF900F08DF910BDC2
:103B20000348008840F010000149088070470000F9
:103B300004280040034800884FF6EF71084001490F
:103B4000088070470428004070B500260024002536
:103B500000F07AF806463848B6FBF0F4374800889B
:103B6000A0423CD035490C8040F2B27510E02846A6
:103B7000FEF702F940B1B4F5B77F02D3A4F5B774EC
:103B800004E0681C85B206E0A4F26D14681C85B2DE
:103B9000B4F5B67FEBD800BF29488580002516E034
:103BA00027498888FEF7E8F830B1012D04D11D2C93
:103BB00001D31D3C09E00CE02248405DA04203D83F
:103BC0002048405D241A00E003E0681C85B21C2CEC
:103BD000E6D200BF681C1A498871601CC87116487B
:103BE000B6FBF0F100FB11644FF46160B4FBF0F040
:103BF000134908704FF46160B4FBF0F100FB114011
:103C00003C21B0FBF1F00E4948704FF46160B4FB09
:103C1000F0F100FB11403C21B0FBF1F201FB12007E
:103C2000074988700B46DA799979988800F028F866
:103C300003490872002070BD805101001601002068
:103C40009E02002007EF0008002103480188001FA2
:103C5000008841EA004070471C28004001460020CF
:103C6000064A12880A40D0B2044A121F12880A4239
:103C700002D008B1012000E0002070470428004075
:103C8000F0B503460C461546642093FBF0F0C6B22F
:103C9000642093FBF0F700FB1730C1B2132E02DD56
:103CA00001F16400C1B20846CF1701EB977701EB31
:103CB000A702072092FBF0F700FB172082B25719EA
:103CC000601EDFF830C01CF80000384482B2CF1705
:103CD00001EB9777BF10B1EB870703D1032C01DA13
:103CE000501E82B2072092FBF0F700FB1720C0B2F3
:103CF000F0BD0000FBEE000810B50120FFF7AEFF9D
:103D000088B10120FFF754FE01200749086000F048
:103D100093F8FFF799FF0549884204D1002000F08D
:103D20006DF800F089F810BD1801002080510100E5
:103D300029B1064A12880243044B1A8004E0034A60
:103D400012888243014B1A8070470000002800400F
:103D50002DE9F04705460E4617469846DDE9089AD4
:103D6000002340F2B270854203DB40F63300854207
:103D700002DD0120BDE8F08740F2B2740AE020467F
:103D8000FDF7FAFF10B11948034401E01848034455
:103D9000601C84B2AC42F2DB701EC6B2002410E09C
:103DA0001448005D40F2A321484303EBC0132846AA
:103DB000FDF7E2FF18B1012C01D10F480344601C4C
:103DC00084B2B442ECDB781E40F2A321484303EBFB
:103DD000C013C8EB4810C0EB082003EB0013C9EB7D
:103DE000091003EB800353441846C3E70085E20142
:103DF0008033E10107EF00088051010000B5024661
:103E0000FFF78EFE100C03490880091D0A80FFF79A
:103E100091FE00BD1828004000B50246FFF780FE65
:103E2000C2F3034003490880091D0A80FFF782FEA0
:103E300000BD00000828004000BF0348008810F0C3
:103E4000200FFAD070470000042800400648008880
:103E50004FF6F77108400449088000BF0248008807
:103E600010F0080FFAD070470428004070B50546DE
:103E7000002405E0601CC4B2C82C01DD002070BD28
:103E800002210E4800F042F80028F3D029460B48E2
:103E900000F048F8002405E0601CC4B2C82C01DD25
:103EA0000020ECE70121054800F030F80028F3D0AD
:103EB000024800F034F8C0B2E1E7000000300140F1
:103EC00010B5002400200F4908604FF09000FFF764
:103ED000CDFF0020FFF7CAFF0020FFF7C7FF00203B
:103EE000FFF7C4FFFF20FFF7C1FF44EA0024FF20D3
:103EF000FFF7BCFF044301200349C1F888012046B5
:103F000010BD00008801214200002142024600202D
:103F100013890B4201D0012000E0002070470146C8
:103F20008889704781817047704710B500F002F8AA
:103F300010BD00000CB500200190009032480068D0
:103F400040F480303049086000BF2F48006800F41A
:103F5000003000900198401C0190009818B9019819
:103F6000B0F5A06FF1D12848006810F4003F02D0EE
:103F70000120009001E0002000900098012842D12B
:103F80002248006840F01000204908600846006898
:103F900020F0030008600846006840F00200086056
:103FA0001948406818494860084640684860084613
:103FB000406840F4806048600846406820F47C1007
:103FC00048600846406840F4E810486008460068C9
:103FD00040F08070086000BF0B48006810F0007F60
:103FE000FAD00948406820F00300074948600846B5
:103FF000406840F00200486000BF0348406800F09D
:104000000C000828F9D10CBD00100240002002402D
:10401000704710B500214FF4FE70FFF7F9FB00F078
:1040200001F810BD10B501210807FFF7C1FB012001
:10403000FFF776FBFFF75AFB10BD000010B51348E1
:10404000006840F0010011490860084640681049C6
:1040500008400E494860084600680E4908400B4970
:1040600008600846006820F4802008600846406820
:1040700020F4FE0048604FF41F008860FFF755FFF2
:104080004FF000600449086010BD000000100240BD
:104090000000FFF8FFFFF6FE08ED00E008B5012183
:1040A0000220FFF785FB01210920FFF7A1FB01207A
:1040B000ADF8000018208DF8030003208DF80200F1
:1040C00069460248FDF774FC08BD0000000C014081
:1040D00000B587B0FFF7E2FF40F2E730ADF814001B
:1040E0000220ADF810000020ADF81600ADF8120067
:1040F00004A9124800F006FD6020ADF80000012080
:10410000ADF8020040F2E730ADF806000020ADF84F
:1041100008006946094800F099FC0821074800F0AA
:10412000E5FC00208DF818000121044800F012FB86
:104130000121024800F020FB07B000BD0004004050
:104140000EB501210420FFF733FB154800F020FBDA
:104150000121134800F00DFB41F28730ADF8040057
:1041600041F61F40ADF800000020ADF80600ADF8A4
:10417000020069460A4800F0C5FC0121084800F029
:10418000F5FA01221146064800F0F6FB0121044829
:1041900000F0F2FA00210420FFF70AFB0EBD000038
:1041A000000800402DE9F04100240121214800F0E1
:1041B000DDFA01F035FD04F037FF1F48007808B93B
:1041C000012000E000201C490870084600781B49C7
:1041D00008601B48007858BB01201949087000246A
:1041E00023E04FF6FF701749088004EB44014800B4
:1041F000FCF710FA07463A4632216420FEF702FE29
:1042000085B204EB44014800FCF704FA07463A463D
:1042100032217820FEF7F2FC86B22B46324664212A
:104220007820FDF749FF601C84B2B4F5B47FD8DB79
:10423000BDE8F08100080040020000208001224219
:104240001E000020C000002007B58EB04FF6FF70A2
:10425000FE4908800E9800EB400040000990FCF7F2
:10426000D9F9024632210A906420FEF7CBFD80B2D4
:104270000C900E9800EB400040000990FCF7CAF942
:10428000024632210A907820FEF7B8FC80B20B90EB
:104290000246642178200C9BFDF70EFF002232219C
:1042A0006420FEF7AFFD80B2002232210C9078200E
:1042B000FEF7A4FC80B20B900246642178200C9B90
:1042C000FDF7FAFE4FF61F00E04908800E98401CEB
:1042D00000EB400040000990FCF79CF902463221B7
:1042E0000A906420FEF78EFD80B20C900E98401C60
:1042F00000EB400040000990FCF78CF902463221A7
:104300000A907820FEF77AFC80B20B900246642176
:1043100078200C9BFDF7D0FE4FF6FF70CB4908804C
:104320000F98401E00EB400040000990FCF772F926
:10433000024628210A906420FEF764FD80B20C90AA
:104340000F98401E00EB400040000990FCF762F916
:10435000024628210A907820FEF750FC80B20B908C
:104360000246642178200C9BFDF7A6FE4FF4FC600A
:10437000B64908800F9800EB400040000990FCF718
:1043800049F9024628210A906420FEF73BFD80B2DD
:104390000C900F9800EB400040000990FCF73AF9B0
:1043A000024628210A907820FEF728FC80B20B9064
:1043B0000246642178200C9BFDF77EFE4FF6FF70CD
:1043C000A249088010980D287EDA10980C2834D164
:1043D0000F98401E0590FCF72BF900229C4BCDE96D
:1043E0000601FCF736F8CDE90801FCF7DFF90246D3
:1043F0001E210A906420FEF705FD80B20C900F98F4
:10440000401E0590FCF714F90022914BCDE90601FE
:10441000FCF71FF8CDE90801FCF7C8F902461E2198
:104420000A907820FEF7EAFB80B20B9002466421E6
:1044300078200C9BFDF740FEA8E00F98401E0190ED
:10444000FCF7F6F80022824BCDE90201FCF701F8F7
:10445000CDE906011098C0EB001040000390FCF776
:10446000E7F8CDE90401DDE90623FBF74BFFCDE9D1
:104470000801FCF79BF902461E210A906420FEF712
:10448000C1FC80B20C900F98401E0190FCF7D0F850
:1044900000226F4BCDE90201FBF7DBFFCDE90601FE
:1044A0001098C0EB001040000390FCF7C1F8CDE974
:1044B0000401DDE90623FBF725FFCDE90801FCF740
:1044C00075F902461E2100E00CE00A907820FEF704
:1044D00095FB80B20B900246642178200C9BFDF77F
:1044E000EBFD53E00F98401E0190FCF7A1F800226D
:1044F000574BCDE90201FBF7ACFFCDE9060110985F
:104500000C38C0EB001040000390FCF791F8CDE9A7
:104510000401DDE90623FBF7F5FECDE90801FCF710
:1045200045F902461E210A906420FEF76BFC80B21A
:104530000C900F98401E0190FCF77AF80022444B33
:10454000CDE90201FBF785FFCDE9060110980C3893
:10455000C0EB001040000390FCF76AF8CDE90401BD
:10456000DDE90623FBF7CEFECDE90801FCF71EF9D5
:1045700002461E210A907820FEF740FB80B20B9085
:104580000246642178200C9BFDF796FD1F202F49E1
:10459000088010980D287DDA10980C2830D10F98DB
:1045A000FCF757F800222A4BCDE90601FBF751FF33
:1045B000CDE90801FCF7FAF802461E210A906420B2
:1045C000FEF720FC80B20C900F98FCF742F8002216
:1045D0001F4BCDE90601FBF73CFFCDE90801FCF7D5
:1045E000E5F802461E210A907820FEF707FB80B20C
:1045F0000B900246642178200C9BFDF75DFDA5E041
:104600000F98FCF726F80022114BCDE90201FBF7C9
:1046100020FFCDE906011098C0EB00104000039088
:10462000FCF706F8CDE90401DDE90623FBF76AFE95
:10463000CDE90801FCF7BAF802461E210A90642071
:10464000FEF7E0FB80B20C900F9803E0C000002062
:104650000000E03FFBF7FDFF00223D4BCDE90201EA
:10466000FBF7F7FECDE906011098C0EB0010400003
:104670000390FBF7DDFFCDE90401DDE90623FBF73D
:1046800041FECDE90801FCF791F802461E210A908F
:10469000782000E00AE0FEF7B1FA80B20B90024603
:1046A000642178200C9BFDF707FD4FE00F98FBF786
:1046B000D0FF0022264BCDE90201FBF7CAFECDE96F
:1046C000060110980C38C0EB001040000390FBF777
:1046D000AFFFCDE90401DDE90623FBF713FECDE9C9
:1046E0000801FCF763F802461E210A906420FEF7D9
:1046F00089FB80B20C900F98FBF7ABFF0022144BA4
:10470000CDE90201FBF7A5FECDE9060110980C38B2
:10471000C0EB001040000390FBF78AFFCDE90401D5
:10472000DDE90623FBF7EEFDCDE90801FCF73EF8D5
:1047300002461E210A907820FEF760FA80B20B90A4
:104740000246642178200C9BFDF7B6FC11B000BD39
:104750000000E03F21B1028842F08002028004E0C4
:1047600002884FF67F731A4002807047CA43028264
:104770007047CA430282704721B1028842F00102A9
:10478000028004E002884FF6FE731A4002807047F0
:1047900010B504466848844208D10121C014FFF7CF
:1047A00037F80021E014FFF733F8C4E0B4F1804F8C
:1047B00008D101210846FFF70BF800210120FFF77F
:1047C00007F8B8E05D48844208D101210220FEF7D5
:1047D000FFFF00210220FEF7FBFFACE058488442B7
:1047E00008D101210420FEF7F3FF00210420FEF789
:1047F000EFFFA0E05348844208D101210820FEF7D2
:10480000E7FF00210820FEF7E3FF94E04E488442D2
:1048100008D101211020FEF7DBFF00211020FEF758
:10482000D7FF88E04948844208D101212020FEF7C3
:10483000CFFF00212020FEF7CBFF7CE044488442DC
:1048400008D101214014FEF7E3FF00216014FEF7B8
:10485000DFFF70E03F48844209D10121C804FEF720
:10486000D7FF00214FF40020FEF7D2FF63E03A4863
:10487000844209D101210805FEF7CAFF00214FF447
:104880008010FEF7C5FF56E03448844209D101216B
:104890004805FEF7BDFF00214FF40010FEF7B8FFFA
:1048A00049E02F48844208D101214020FEF790FFC3
:1048B00000214020FEF78CFF3DE02A48844208D1C9
:1048C00001218020FEF784FF00218020FEF780FF79
:1048D00031E02548844208D101218015FEF778FF98
:1048E0000021A015FEF774FF25E02048844209D17D
:1048F00001210804FEF78CFF00214FF48030FEF701
:1049000087FF18E01A48844209D101214804FEF7C4
:104910007FFF00214FF40030FEF77AFF0BE01548CF
:10492000844208D101218804FEF772FF00214FF470
:104930008020FEF76DFF10BD002C014000040040F8
:1049400000080040000C004000100040001400402F
:1049500000340140004C014000500140005401402F
:1049600000180040001C00400020004000400140B2
:1049700000440140004801401AB183890B43838100
:1049800002E083898B4383817047000070B5002467
:1049900000220023058C4FF6EF7635400584028C0B
:1049A0008388048B48F6FF752C404FF6FF452C405A
:1049B0000D884FF6FF7606EA05252C434FF6DF7586
:1049C0002A400D8906EA05152A434D8806EA051591
:1049D0002A43154DA84202D0144DA8421DD14FF6CE
:1049E0007F752A404D894FF6FF7606EA05152A4362
:1049F0004FF6BF752A408D8806EA05152A434FF603
:104A0000FF352B404FF2FF752B408D8906EA850557
:104A10002B43CD8906EA85052B4383800483CD880B
:104A20000587028470BD0000002C01400034014065
:104A30000A460021018B4FF2FF7319404FF6FF73B6
:104A400003EA0223194301837047000070B5002474
:104A500000220023058C4FF6FF6635400584028C4A
:104A60008388848B4FF68F752C404FF6FC752C4055
:104A70000D882C434FF6FF552A400D894FF6FF76DF
:104A800006EA05252A434D8806EA05252A43154DE1
:104A9000A84202D0144DA8421DD14FF2FF752A4002
:104AA0004D894FF6FF7606EA05252A434FF6FF3576
:104AB0002A408D8806EA05252A434EF6FF752B40CD
:104AC0004DF6FF752B408D8906EA05152B43CD89E0
:104AD00006EA05152B4383808483CD88858702846D
:104AE00070BD0000002C0140003401400A46002146
:104AF000818B4FF6F773194011438183704781878B
:104B000070470000002202881D4B98420ED01D4BBA
:104B100098420BD0B0F1804F08D01B4B984205D083
:104B20001A4B984202D01A4B984204D14FF68F7319
:104B30001A404B881A43174B984207D0164B98429D
:104B400004D04FF6FF431A40CB881A4302808B886B
:104B500083850B8803850A4B98420BD0094B9842FA
:104B600008D00E4B984205D00D4B984202D00D4B09
:104B7000984201D10B7A038601238382704700009B
:104B8000002C0140003401400004004000080040B7
:104B9000000C0040001000400014004000400140A4
:104BA00000440140004801402DE9FC5F04460D46E9
:104BB00017461E46DDE90EABDDE90C894FF478405F
:104BC0005749088057A01021CDE900105648438866
:104BD0000288A0212820FDF747FF54A01021CDE92D
:104BE0000010514843880288A0217820FDF73CFF3F
:104BF0004FA01021CDE900104B4843880288B42112
:104C00002820FDF731FF4BA01021CDE900104648C8
:104C100043880288B4217820FDF726FF46A01021A2
:104C2000CDE90010404843880288C8212820FDF7BC
:104C30001BFF42A01021CDE900103B4843880288A9
:104C4000C8217820FDF710FF3DA01021CDE900100C
:104C5000354843880288DC212820FDF705FF39A06C
:104C60001021CDE90010304843880288DC217820EB
:104C7000FDF7FAFE34A01021CDE900102A48438840
:104C80000288F0212820FDF7EFFE102004232246A1
:104C9000A02100904020FDF79DFE102004232A460D
:104CA000A02100909020FDF795FE102004233A46A5
:104CB000B42100904020FDF78DFE102004233246E1
:104CC000B42100909020FDF785FE10200423424679
:104CD000C82100904020FDF77DFE102004234A46A5
:104CE000C82100909020FDF775FE10200423524645
:104CF000DC2100904020FDF76DFE102004235A4671
:104D0000DC2100909020FDF765FE10200090064801
:104D1000018803236020109AFDF75CFEBDE8FC9F2C
:104D2000C000002078313A009002002079313A002A
:104D300078323A0079323A0078333A0079333A00DF
:104D400078343A0079343A006661632069733A0036
:104D500000B595B0002010900A9010901F20FE49D9
:104D600008804FF6FF70FD490880FDF713F94FF4F6
:104D70007840F94908804FF6FF70FDF70BF90020E5
:104D8000F5490880F648006810216423A022CDE987
:104D9000001028210846FDF767FE4FF478421421E1
:104DA000084600F0F3FB0020EE4981F8200048623D
:104DB000C0E3EC4840680990012009998847E94818
:104DC00090F8200000F0C00040286ED100200A902A
:104DD000E44890F8200020F04000E24981F82000EB
:104DE0000846818911AA109822F82010DD48C18A4E
:104DF000109802EB800041801098401CC0B21090C7
:104E00001098012806D0022815D0032829D004289C
:104E100010D141E04FF6FF721421084600F0B6FBB6
:104E2000D1480088143880B24FF478421421099098
:104E300000F0ACFB6EE3CC480088143880B24FF62B
:104E4000FF721421099000F0A1FBC7484088143874
:104E500080B24FF4784201460990142000F096FB8E
:104E600058E3C1484088143880B24FF6FF720146BB
:104E70000990142000F08AFBBB484088143880B2A7
:104E80000990B9480088143880B24FF478420890ED
:104E9000099900F07BFB3DE3BDF84400BDF84810E4
:104EA000401A099002D4099802E034E3099840427C
:104EB0000D90BDF8461011A8C088081A099001D4B9
:104EC000099801E0099840420C900D9840430D90DC
:104ED0000C9840430C90DDE90C1008440590FBF75A
:104EE000B8FBCDE9060105F0E5FACDE90801FBF7CD
:104EF00009FC80B20F90BDF84C00BDF85010401A6C
:104F0000099001D4099801E0099840420D9011A838
:104F10004189C089081A099001D4099801E00998CB
:104F200040420C900D9840430D900C9840430C90DB
:104F3000DDE90C1008440590FBF78BFBCDE9060179
:104F400005F0B8FACDE90801FBF7DCFB80B20E9062
:104F50000E98FBF768FB09900F98FBF764FB08902D
:104F60000999FBF78FF90B900B98FBF7E4FB4FF0D7
:104F700066327E4BCDE90801FBF7F0FB0DD30B98B1
:104F8000FBF7D9FB7A4A7B4BCDE90801FBF7FAFB2B
:104F900003D30F9808B10E98E8BB00201090724818
:104FA0004088143880B209906F480088143880B265
:104FB0004FF6FF720890099900F0E8FA4FF4784232
:104FC0001421084600F0E2FA6B490B98FBF724F92C
:104FD0000890FBF764FB80B211A90990C989BDF85C
:104FE000502011AB5B89CDE90132CDE90310BDF84A
:104FF0004C00009011A8C0880890BDF848000790A8
:10500000BDF846000690BDF84400059006A90EC9FB
:10501000FFF7CAFD8EE2FFE7BDF84400BDF84C1073
:10502000401A099001D4099801E0099840420D9076
:10503000BDF8461011A84089081A099001D40998B2
:1050400001E0099840420C900D9840430D900C9857
:1050500040430C90DDE90C1008440590FBF7F9FA89
:10506000CDE9060105F026FACDE90801FBF74AFB78
:1050700080B20F90BDF84800BDF85010401A09905A
:1050800001D4099801E0099840420D9011A8C18807
:10509000C089081A099001D4099801E00998404292
:1050A0000C900D9840430D900C9840430C90DDE916
:1050B0000C1008440590FBF7CCFACDE9060105F089
:1050C000F9F9CDE90801FBF71DFB80B20E900E98AF
:1050D000FBF7A9FA09900F98FBF7A5FA0890099930
:1050E000FBF7D0F80B900B98FBF725FB4FF06632DF
:1050F0001E4BCDE90801FBF731FB09D30B98FBF7F9
:105100001AFB1B4A1B4BCDE90801FBF73BFB51D2B5
:105110000020109014484088143880B2099012483A
:105120000088143880B24FF6FF720890099900F099
:105130002DFA4FF478421421084600F027FA0E4960
:105140000B98FBF769F80890FBF7A9FA80B211A950
:105150000990C98912E00000C0000020C2000020B0
:1051600008010020D0000020900200206666EE3F7B
:10517000CDCCCCCCCCCCF03F0000C842BDF8502008
:1051800011AB5B89CDE90132CDE90310BDF84C00CC
:10519000009011A8C0880890BDF848000790BDF89D
:1051A00046000690BDF84400059006A90EC9FFF719
:1051B000FBFCBFE1BDF84800BDF84C10401A099057
:1051C00001D4099801E0099840420D9011A8C188C6
:1051D0004089081A099001D4099801E009984042D1
:1051E0000C900D9840430D900C9840430C90DDE9D5
:1051F0000C1008440590FBF72CFACDE9060105F0E8
:1052000059F9CDE90801FBF77DFA80B20F90BDF89E
:105210004400BDF85010401A099001D4099801E0EB
:10522000099840420D90BDF8461011A8C089081A8F
:10523000099001D4099801E0099840420C900D981A
:1052400040430D900C9840430C90DDE90C1008444D
:105250000590FBF7FEF9CDE9060105F02BF9CDE944
:105260000801FBF74FFA80B20E900E98FBF7DBF9BE
:1052700009900F98FBF7D7F908900999FBF702F806
:105280000B900B98FBF757FA4FF06632AB4BCDE91A
:105290000801FBF763FA09D30B98FBF74CFAA84A0D
:1052A000A84BCDE90801FBF76DFA3DD20020109024
:1052B000A5484088143880B20990A3480088143863
:1052C00080B24FF6FF720890099900F05FF94FF431
:1052D00078421421084600F059F99C490B98FAF7D6
:1052E0009BFF0890FBF7DBF980B211A90990C989EF
:1052F000BDF8502011AB5B89CDE90132CDE9031037
:10530000BDF84C00009011A8C0880890BDF8480076
:105310000790BDF846000690BDF84400059006A928
:105320000EC9FFF741FC05E1BDF84800BDF8441087
:10533000401A0790FBF76EF90990834800882838D7
:105340000790FBF767F908900999FAF79BFF8049E6
:105350004862BDF84800BDF8441008440490FBF7CB
:1053600059F905907A48406A014604900598FAF781
:1053700053FF0790744800880590FBF754F9069096
:105380000799FAF743FF4FF080410890FAF77AFF48
:105390000990FBF76BF900B26D49888511A8408927
:1053A000BDF84610401A0790FBF734F9099066489B
:1053B000408828380790FBF72DF908900999FAF7EB
:1053C00061FF6349886211A84089BDF8461008440E
:1053D0000490FBF71FF905905D48806A0146049030
:1053E0000598FAF719FF0790574840880590FBF792
:1053F0001AF906900799FAF709FF4FF080410890D3
:10540000FAF740FF0990FBF731F900B25049C8851F
:105410000846406A0790FBF729F90890002801DB4D
:10542000089801E00898404202280DDC4848806A4C
:105430000790FBF71BF90990002801DB099801E0B0
:1054400009984042022842DD002010903E484088E2
:10545000143880B209903C480088143880B24FF666
:10546000FF720890099900F091F84FF478421421E6
:10547000084600F08BF837A01021CDE90010324823
:105480004088099030480088089002461A21282058
:10549000099BFDF7E9FA2E4890F8300008B9012081
:1054A00000E000202A4981F83000084690F83000DA
:1054B00030B190202C490870D0202C49087005E0AC
:1054C000D0202949087090202849087032E01F2018
:1054D000274908804FF6FF70FCF75CFD25A01021DE
:1054E000CDE90010184840880990174800880890B6
:1054F00002466E212320099BFDF7B6FA4FF47A701D
:1055000003F0DEF800F016FA4FF6FF70FCF742FDEC
:1055100015B000BD00BF0A2003F0D2F80A98401C65
:1055200080B20A900A98B0F57A7F02DD00F066F842
:1055300001E000BF3DE400BF00BFE9E76666EE3F63
:10554000CDCCCCCCCCCCF03F900200200000C842A7
:10555000D00000205450204E65656420726561645F
:105560006A75737421000000040100200501002009
:10557000C0000020546F7563682053637265656EC8
:105580002041646A757374204F4B210070B5044646
:105590000D4616461848068004F10D018AB21939E5
:1055A00088B22B462946FCF787FD05F10D0083B232
:1055B000193881B222462046FCF77EFD6A1C91B262
:1055C000621C90B2FCF7D0FD6A1C91B2621E90B2D0
:1055D000FCF7CAFD6A1E91B2621C90B2FCF7C4FDD2
:1055E0006A1E91B2621E90B2FCF7BEFD06222946E9
:1055F0002046FCF7E1F870BDC000002070B53520F2
:10560000FBF7A9FC04460A2C42D104212820FBF711
:105610008CFC04462046FAF7FDFF05461D49FAF7C3
:1056200031FE1D49486204212C20FBF77EFC044614
:105630002046FAF7EFFF05461649FAF723FE16490A
:10564000886202213020FBF770FC00B21249888585
:1056500002213220FBF769FC00B20F49C8853420D3
:10566000FBF779FC0C4981F83000084690F83000CF
:1056700030B1902009490870D0200949087005E030
:10568000D02006490870902005490870012070BD9F
:105690000020FCE720BCBE4CD0000020040100200C
:1056A0000501002008B501218820FEF7A1F8062099
:1056B000ADF8000010208DF8030003208DF80200E3
:1056C00069461B48FCF774F906211948FCF704FAEF
:1056D0004FF40070ADF8000069461648FCF768F911
:1056E0004FF400711348FCF7F7F94FF4A060ADF8E0
:1056F000000048208DF8030069460E48FCF758F971
:105700000D49A1F10A0000F09DF8FBF70AFCFFF734
:1057100075FF08B1002008BD4FF6FF70FCF73AFC9A
:10572000FFF716FB00F006F9FFF768FF0120F2E72C
:10573000000C0140001C0140E600002070B5064648
:105740000025002400201C4908601C49C1F8A40160
:105750001B490860304600F0B1F9062002F0CEFF88
:1057600000201849C1F88401012002F0C7FF012080
:10577000114908604FF000001249C1F8840100BFD0
:1057800012E04FF6FF7000EA440400200A49086066
:105790004FF001000B49C1F884010B48006808B1C3
:1057A000601C84B2681CC5B2102DEADB24110120F4
:1057B00003490860204670BD848121420080234255
:1057C0008881214200802142208123422DE9FE432D
:1057D00080460027002406E04046FFF7AFFF2DF883
:1057E0001400601C84B2052CF6DB002416E0601C5B
:1057F00085B20FE03DF814003DF81510884207DD32
:105800003DF814603DF815002DF814002DF81560D2
:10581000681C85B2052DEDDB601C84B2042CE6DB30
:105820000027012405E03DF81400384487B2601CCD
:1058300084B2042CF7DB032097FBF0F086B23046ED
:10584000BDE8FE832DE9F04104460D460748007887
:10585000FFF7BCFF064606480078FFF7B7FF07468C
:1058600026802F800120BDE8F08100000401002087
:10587000050100207FB504460D4602A903A8FFF7E5
:10588000E1FF064616B9002004B070BD694601A8C4
:10589000FFF7D8FF06460EB90020F5E7BDF8040073
:1058A000BDF80C10884206DCBDF80C10BDF80400F1
:1058B000323081420CDBBDF80C00BDF80410884288
:1058C00036DCBDF80410BDF80C00323081422FDA0E
:1058D000BDF80000BDF80810884206DCBDF80810CD
:1058E000BDF80000323081420CDBBDF80800BDF885
:1058F000001088421CDCBDF80010BDF808003230F2
:10590000814215DABDF80C10BDF80420881800EBB0
:10591000D071C1F34F012180BDF80810BDF80020FF
:10592000881800EBD071C1F34F0129800120ABE74B
:105930000020A9E770B51B49486A1B49FAF76CFCBF
:105940000546FAF793FE0446042221462820FBF779
:105950002EFB1449886A1449FAF75EFC0546FAF7EB
:1059600085FE0446042221462C20FBF720FB0D482F
:10597000B0F92C1002223020FBF719FB0948B0F9CE
:105980002E1002223220FBF712FB064890F830104E
:105990003420FBF721FB0A2421463520FBF71CFBB2
:1059A00070BD0000D000002020BCBE4C2DE9F041AD
:1059B000044640480068002856D12CB13E49A1F168
:1059C0000A00FFF757FF3DE03B49A1F10A00FFF74E
:1059D00051FFB8B338491639B1F92C00FAF71AFE5D
:1059E0000746354916398889FAF71DFE8046324840
:1059F0001638416A4046FAF70FFC06463946FAF770
:105A0000B3FB0546FAF74BFE2B4916398881B1F9ED
:105A10002E00FAF7FFFD074627491639C88AFAF71C
:105A200002FE804624481638816A4046FAF7F4FBA5
:105A300006463946FAF798FB0546FAF730FE1E4946
:105A40001639C8821C48163890F8200010F0800FD4
:105A500027D1C0201849163981F8200008468189CD
:105A60008182C18AC1831CE01348163890F8200057
:105A700010F0800F0AD01048163890F8200020F05F
:105A800080000D49163981F820000AE000210A48FB
:105A900016388182C1834FF6FF7007491639888115
:105AA000C8820548163890F8200000F08000BDE854
:105AB000F081000028812342E6000020002100BF81
:105AC00019E010F0800F03D001220C4B1A6002E0A5
:105AD00000220A4B1A604FEA40624FEA12604FF010
