:020000040800F2
:1000000008050020450100084D0100084F010008C7
:1000100051010008530100085501000800000000CC
:100020000000000000000000000000005701000870
:1000300059010008000000005B0100085D01000894
:100040005F0100085F0100085F0100085F01000810
:100050005F0100085F0100085F0100085F01000800
:100060005F0100085F0100085F0100085F010008F0
:100070005F0100085F0100085F0100085F010008E0
:100080005F0100085F0100085F0100085F010008D0
:100090005F0100085F0100085F0100085F010008C0
:1000A0005F0100085F0100085F0100085F010008B0
:1000B000910700085F0100085F0100085F01000868
:1000C0005F0100085F0100085F0100085F01000890
:1000D0005F010008290B00085F0100085F010008AC
:1000E0005F0100085F0100085F0100085F01000870
:1000F0005F0100085F0100085F0100085F01000860
:100100005F0100085F0100085F0100085F0100084F
:100110005F0100085F0100085F0100085F0100083F
:100120005F0100085F0100085F0100085F0100082F
:10013000DFF80CD000F032F8004800470D15000839
:10014000080500200648804706480047FEE7FEE70E
:10015000FEE7FEE7FEE7FEE7FEE7FEE7FEE7FEE777
:10016000D10600083101000800F0004220F00040F4
:10017000C10DC0F3160040F400007F2901DA002011
:100180007047962903DCC1F19601C84001E0963919
:100190008840002AF4D0404270470000064C074DCA
:1001A00006E0E06840F0010394E807009847103447
:1001B000AC42F6D3FFF7C0FFBC1E0008DC1E0008EF
:1001C00010B501200649086006480178064801F08C
:1001D0005DFD00200549C1F884010549087010BD86
:1001E000848121421E000020D20000200080214294
:1001F0001F0000204FF0E021096921F004014FF0B9
:10020000E0221161C21700EB5272D210074B1A7034
:100210001946097801EB4102C2EBC1114FF6FF729A
:1002200002EAC101024A1180704700001400002058
:100230001600002008B50121202000F04DF9F02023
:10024000ADF8000010208DF8030003208DF80200A7
:100250006946024800F004F808BD0000001401409F
:100260002DE9F0410246002500260020002300244D
:10027000002791F803C00CF00F0591F803C01CF0A3
:10028000100F03D091F802C04CEA050591F800C0A8
:10029000BCF1000F31D0146800202BE04FF0010CAE
:1002A0000CFA00F3B1F800C00CEA03069E4220D11C
:1002B00083004FF00F0C0CFA03F7BC4305FA03FC64
:1002C0004CEA040491F803C0BCF1280F06D14FF0AA
:1002D000010C0CFA00FCC2F814C00AE091F803C04B
:1002E000BCF1480F05D14FF0010C0CFA00FCC2F82C
:1002F00010C0401C0828D1D31460B1F800C0BCF174
:10030000FF0F34DD546800202EE000F1080C4FF0A0
:10031000010808FA0CF3B1F800C00CEA03069E428B
:1003200021D183004FF00F0C0CFA03F7BC4305FA00
:1003300003FC4CEA040491F803C0BCF1280F05D17A
:1003400000F1080C08FA0CF8C2F8148091F803C008
:10035000BCF1480F07D100F1080C4FF0010808FA72
:100360000CF8C2F81080401C0828CED35460BDE8B9
:10037000F08141617047000038B504460121042036
:1003800000F0AAF80220ADF8000010208DF803005C
:1003900003208DF8020069460648FFF761FF02213D
:1003A0000548FFF7E6FF00F077FB00F0C1F90348CE
:1003B000047038BD00080140000C01401C00002002
:1003C00008B50121084600F087F84FF4A06000F05E
:1003D00059F81C208DF8000001208DF80100002044
:1003E0008DF8020001208DF80300684600F010F837
:1003F00025208DF8000000208DF8010001208DF8E7
:1004000002008DF80300684600F002F808BD000005
:1004100070B5002100230F22C4780CB3164C246859
:1004200004F4E064C4F5E064210AC1F10403CA40A5
:10043000447804FA03F184781440214309010F4CF5
:100440000678A155047804F01F050124AC40057816
:100450006D114FF0E02606EB8505C5F8004109E077
:10046000047804F01F050124AC40054D0678761190
:1004700045F8264070BD00000CED00E000E400E00F
:1004800080E100E002490143024A11607047000028
:100490000000FA050CED00E029B1064AD2690243DA
:1004A000044BDA6104E0034AD2698243014BDA610A
:1004B000704700000010024029B1064A1269024349
:1004C000044B1A6104E0034A12698243014B1A612A
:1004D000704700000010024029B1064A92690243A9
:1004E000044B9A6104E0034A92698243014B9A618A
:1004F000704700000010024029B1064AD26802434A
:10050000044BDA6004E0034AD2688243014BDA60AC
:10051000704700000010024030B500210022002486
:1005200000232D4D6D6805F00C0121B1042905D083
:10053000082923D105E0294D056022E0274D0560FB
:100540001FE0254D6D6805F47012234D6D6805F4AC
:100550008034022505EB92421CB9214D55430560BC
:100560000BE01D4D6D6815F4003F03D01C4D554345
:10057000056002E0194D5543056002E0174D056026
:1005800000BF00BF144D6D6805F0F0010909154D5D
:100590006B5C0568DD4045600F4D6D6805F4E061FA
:1005A000090A104D6B5C4568DD4085600A4D6D6839
:1005B00005F46051C90A0B4D6B5C4568DD40C560B0
:1005C000054D6D6805F44041890B074D6B5CC568AE
:1005D000B5FBF3F5056130BD0010024000127A0052
:1005E00000093D00000000201000002010B500F0C0
:1005F00001F810BD0CB50020019000903248006851
:1006000040F480303049086000BF2F48006800F493
:10061000003000900198401C0190009818B9019892
:10062000B0F5A06FF1D12848006810F4003F02D067
:100630000120009001E0002000900098012842D1A4
:100640002248006840F01000204908600846006811
:1006500020F0030008600846006840F002000860CF
:10066000194840681849486008464068486008468C
:10067000406840F4806048600846406820F47C1080
:1006800048600846406840F4E81048600846006842
:1006900040F08070086000BF0B48006810F0007FD9
:1006A000FAD00948406820F003000749486008462E
:1006B000406840F00200486000BF0348406800F016
:1006C0000C000828F9D10CBD0010024000200240A7
:1006D00010B51348006840F0010011490860084651
:1006E0004068104908400E494860084600680E49B5
:1006F00008400B4908600846006820F48020086024
:100700000846406820F4FE0048604FF41F008860EF
:10071000FFF76CFF4FF000600449086010BD000057
:10072000001002400000FFF8FFFFF6FE08ED00E0B9
:100730000EB501210846FFF7AFFE4FF0804000F0F4
:100740005BF80121880700F048F80920ADF80400A3
:1007500041F61F40ADF800000020ADF80600ADF8EE
:10076000020069464FF0804000F044F901218807FB
:1007700000F030F801221146900700F031F9012114
:10078000880700F02DF801210846FFF785FE0EBD11
:1007900010B50121880700F01DF80B4800780028EB
:1007A00010DD09480078401E0749087008460078A7
:1007B00040B906480078002804DD0020044908609C
:1007C0000249087010BD00001D0000201F0000201D
:1007D00084812142CA4302827047CA430282704721
:1007E00021B1028842F00102028004E002884FF643
:1007F000FE731A400280704710B504466848844270
:1008000008D10121C014FFF777FE0021E014FFF7A3
:1008100073FEC4E0B4F1804F08D101210846FFF710
:100820004BFE00210120FFF747FEB8E05D488442FF
:1008300008D101210220FFF73FFE00210220FFF72F
:100840003BFEACE05848844208D101210420FFF768
:1008500033FE00210420FFF72FFEA0E0534884421E
:1008600008D101210820FFF727FE00210820FFF70B
:1008700023FE94E04E48844208D101211020FFF766
:100880001BFE00211020FFF717FE88E04948844234
:1008900008D101212020FFF70FFE00212020FFF7C3
:1008A0000BFE7CE04448844208D101214014FFF74C
:1008B00023FE00216014FFF71FFE70E03F488442D2
:1008C00009D10121C804FFF717FE00214FF40020D1
:1008D000FFF712FE63E03A48844209D1012108057E
:1008E000FFF70AFE00214FF48010FFF705FE56E0E7
:1008F0003448844209D101214805FFF7FDFD00215C
:100900004FF40010FFF7F8FD49E02F48844208D16A
:1009100001214020FFF7D0FD00214020FFF7CCFD52
:100920003DE02A48844208D101218020FFF7C4FD20
:1009300000218020FFF7C0FD31E02548844208D126
:1009400001218015FFF7B8FD0021A015FFF7B4FDC8
:1009500025E02048844209D101210804FFF7CCFD9D
:1009600000214FF48030FFF7C7FD18E01A48844299
:1009700009D101214804FFF7BFFD00214FF40030E9
:10098000FFF7BAFD0BE01548844208D10121880425
:10099000FFF7B2FD00214FF48020FFF7ADFD10BD41
:1009A000002C01400004004000080040000C004002
:1009B000001000400014004000340140004C014091
:1009C000005001400054014000180040001C00404D
:1009D0000020004000400140004401400048014028
:1009E0001AB183890B43838102E083898B4383811E
:1009F00070470000002202881D4B98420ED01D4B0C
:100A000098420BD0B0F1804F08D01B4B984205D0D4
:100A10001A4B984202D01A4B984204D14FF68F736A
:100A20001A404B881A43174B984207D0164B9842EE
:100A300004D04FF6FF431A40CB881A4302808B88BC
:100A400083850B8803850A4B98420BD0094B98424B
:100A500008D00E4B984205D00D4B984202D00D4B5A
:100A6000984201D10B7A03860123838270470000EC
:100A7000002C014000340140000400400008004008
:100A8000000C0040001000400014004000400140F5
:100A9000004401400048014000B585B0012144F206
:100AA0000500FFF719FD4FF40070ADF81000182095
:100AB0008DF8130003208DF8120004A91848FFF7E1
:100AC000CFFB4FF48060ADF8100004208DF81300C8
:100AD00004A91348FFF7C4FB4FF416500090002000
:100AE000ADF80400ADF80600ADF80800ADF80C0054
:100AF0000C20ADF80A0069460A4800F075F801229A
:100B000040F22551074800F04AF8012280210548AB
:100B100000F045F80121034800F028F805B000BDB9
:100B2000000801400038014010B520210B4800F0BA
:100B300029F8012811D1094800F0C2F80849094AEA
:100B4000127888540A200849087006480078401C2A
:100B50000449087000200149088010BD0038014098
:100B6000A00000201F0000201D00002021B182896C
:100B700042F40052828104E082894DF6FF731A40EC
:100B80008281704702460020B1F5007F00D100BF8E
:100B900013880B4201D0012000E000207047F0B51F
:100BA00003460024002600250020A1F510676A3FB7
:100BB00000D100BF1846C1F3421401F01F060127FF
:100BC00007FA06F5012C01D10C3004E0022C01D10A
:100BD000103000E014301AB107682F43076002E0BC
:100BE0000768AF430760F0BD2DE9F04786B00546C2
:100BF0000E460024A24600BFA1460027B08900B1DE
:100C000000BF2F462C8A4CF6FF700440F088044346
:100C10002C82AC894EF6F3100440B0883189084329
:100C2000718908430443AC81AC8A4FF6FF4004400D
:100C3000B0890443AC8201A8FFF76EFC1F488742CD
:100C400002D1DDF810A001E0DDF80CA0A88910F4B5
:100C5000004F08D00AEBCA0000EB0A1031684900C7
:100C6000B0FBF1F807E00AEBCA0000EB0A103168AC
:100C70008900B0FBF1F86420B8FBF0F00401200912
:100C8000642101FB1089A88910F4004F08D032209C
:100C900000EBC900B0FBF1F000F00700044308E0EE
:100CA000322000EB09106421B0FBF1F000F00F00DE
:100CB00004432C8106B0BDE8F087000000380140F5
:100CC00001468888C0F308007047C1F3080282809B
:100CD00070470000014A024900F013B831110008C2
:100CE0001800002002E008C8121F08C1002AFAD12B
:100CF00070477047002001E001C1121F002AFBD19C
:100D000070472DE9F04116460F460446002503E0E2
:100D10003946B0476D1C641C20780028F8D128465D
:100D2000BDE8F08170B59C480078042877DD9B48C9
:100D30004078052874D008DC01280DD002282CD07A
:100D400003284BD004286CD16EE006286AD00F2807
:100D500069D01028F7D1EDE08F48007808281BDB18
:100D60008E4800788E490978884215D106218B4833
:100D700000F018F904468948C579807900EB052010
:100D800085B2AC4205D185484078012801D100F0F8
:100D900071FC002080490870FBE07F48007808283B
:100DA0001BDB7E4800787E490978884215D10621F0
:100DB0007A4800F0F7F804467848C579807900EB66
:100DC000052085B2AC4205D174484078022801D193
:100DD00000F0C8FC002070490870DAE06E48007826
:100DE00008281BDB6D4800786D490978884215D1C9
:100DF00006216A4800F0D6F804466848C57980792B
:100E000000EB052085B2AC4205D164484078032848
:100E100001D100F07BFD00205F490870B9E0B9E026
:100E200023E0B5E042E062E05B48007808281BDB85
:100E30005A4800785A490978884215D106215748FE
:100E400000F0B0F804465548C579807900EB0520DC
:100E500085B2AC4205D151484078042801D100F058
:100E6000FFFC00204C49087093E04B4800780828AC
:100E70001BDB4A4800784A490978884215D1062187
:100E8000464800F08FF804464448C579807900EB65
:100E9000052085B2AC4205D140484078052801D1F3
:100EA00000F00EF900203C49087072E03A480078E2
:100EB00008281BDB3948007839490978884215D160
:100EC0000621364800F06EF804463448C57980792A
:100ED00000EB052085B2AC4205D1304840780628A9
:100EE00001D100F087FB00202B49087051E02B480E
:100EF0008679093628480078B0421ADB27480078FE
:100F000027490978884211D1B01E81B2234800F0E8
:100F100049F80446B01E2149095C701E1F4A105C46
:100F200001EB0020A04201D100F058F800201A493E
:100F300008702EE0194840791849097900EB012022
:100F400086B24FF6FF7000EA460606F1090086B247
:100F500011480078B0421ADB10480078104909782F
:100F6000884211D1B01E81B20C4800F01BF8044633
:100F7000701E0A490D5CB01E085C00EB052085B2AE
:100F8000AC4201D100F0E0FA00200349087000E013
:100F900000BF00BF70BD00001F000020A0000020A7
:100FA0001C00002070B502460C46FF25FF2309E017
:100FB00012F8010B80EA05010648405C80EA03054F
:100FC0000548435C2000A4F10106B4B2F0D145EA23
:100FD000032070BDBC1C0008BC1D00082DE9F84FA3
:100FE000002000903248C0783149897800EB012018
:100FF00085B22F462E4840792D49097900EB012012
:1010000084B22046E11704EB51714FEAE10AE1177F
:1010100004EB5171C910B4EBC10101D00AF1010A0E
:10102000002624E04FF0000917E02149F01D085C7C
:1010300040FA09F000F0010B5946384600F0BCFCBC
:10104000781C87B228190830B84202DC01200090D1
:1010500006E009F101001FFA80F9B9F1080FE4DB9D
:1010600000BF0098012800D103E0701C86B25645ED
:10107000D8DB00BF0F4800780F4908700F20487078
:1010800028128870CD70201208714C7106210A4810
:10109000FFF788FF8046084981F806804FEA28203C
:1010A000C871082005490870FFF78AF8BDE8F88F75
:1010B000A00000201C000020D20000201E00002004
:1010C0002DE9F0411648C0781549897800EB0120D8
:1010D00087B2B846124840791149097900EB0120DE
:1010E00086B2B6F57F4F01D1012501E006B9002592
:1010F0002946404600F060FC002405E00848005DF9
:1011000008490855601CC4B2074800788442F5DBE2
:101110000548007805490870FFF752F8BDE8F081EE
:10112000A0000020D20000201F0000201E00002090
:1011300070B504460D4600BF40210548FFF722FD6B
:101140000028F9D0E1B20248FFF7BFFD204670BD8C
:101150000038014010B50246144642F21073E01AFE
:101160009C4230D007DC082C4DD2DFE804F00C1094
:1011700014181C202428082845D2DFE800F0442851
:101180002C3034383C402248007808803CE021482C
:101190000078088038E020480078088034E01F4854
:1011A0000078088030E01E48007808802CE01D4858
:1011B0000078088028E01C480078088024E01B485C
:1011C0000078088020E01A48006808801CE0194870
:1011D0000068088018E018480068088014E0174884
:1011E0000068088010E01648007808800CE0154878
:1011F0000078088008E014480078088004E013486C
:101200000078088000E000BF00BF4FF0000010BD74
:101210008C0000208D0000208E0000208F00002018
:1012200090000020910000209200002093000020F8
:101230001081224214812242188122421C812242C2
:1012400088000020890000208A0000208B000020F8
:10125000024649F64043D01A9A4244D013DCA2F524
:10126000E040A0F5A660182871D2DFE800F01C204D
:1012700024282C3034385C646871757D81898D95A3
:1012800099A1A5ADB1B91828EED2DFE800F0603021
:1012900034383C404448ADB5B9C1C5CDD1D9DDE500
:1012A000E9F6FAF3F2F185480088088002E1834804
:1012B00040880880FEE0814880880880FAE07F4806
:1012C000C0880880F6E07D4800890880F2E07B480D
:1012D00040890880EEE0794880890880EAE0774814
:1012E000C0890880E6E0764800880880E2E074481B
:1012F00040880880DEE0724880880880DAE0704824
:10130000C0880880D6E06E4800890880D2E06C482A
:1013100040890880CEE06A4880890880CAE0684831
:10132000C0890880C6E067480068674B18601846A7
:1013300000880880BEE0644840880880BAE06348BE
:101340000068614B1860184600880880B2E0B0E081
:101350005D4840880880ADE05D4800685A4B1860E1
:10136000184600880880A5E0574840880880A1E01A
:1013700058480068544B186018460088088099E067
:1013800051484088088095E0534800684E4B1860EB
:101390001846008808808DE04B484088088089E026
:1013A0004E480068484B186018460088088081E065
:1013B0004548408808807DE049480068424B1860F5
:1013C00018460088088075E03F484088088071E032
:1013D000444800683C4B186018460088088069E063
:1013E00039484088088065E03F4800683F4B1860F6
:1013F0001846008808805DE03C484088088059E035
:101400003B480068394B186018460088088051E056
:101410003648408808804DE036480068334B1860F5
:1014200018460088088045E030484088088041E040
:10143000314800682D4B186018460088088039E054
:101440002A484088088035E02C480068274B1860FF
:101450001846008808802DE024484088088029E04C
:1014600027480068214B186018460088088021E052
:101470001BE012E00DE004E0FFE71C484088088014
:1014800018E020480068194B18601846008808804A
:1014900010E01648408808800CE01B480068134B99
:1014A000186018460088088004E0104840880880CA
:1014B00000E000BF00BF00207047000024000020B3
:1014C0003400002044000020980000204800002044
:1014D0004C00002050000020540000205800002044
:1014E0005C00002060000020640000209C000020C0
:1014F000680000206C0000207000002074000020B4
:10150000780000207C00002080000020FEF758FFBB
:101510004820FEF76FFEFEF78DFE0120FEF72CFF40
:1015200003A0FFF7D7FB01E0FFF7FCFBFCE700009F
:10153000BFAACABCB2E2CAD44D4F44425553D0AD43
:10154000D2E9A3A10A0000002DE9F0472548C078A0
:101550002449897800EB012085B249F640402844AF
:101560001FFA80F81F4840791E49097900EB0120D5
:1015700086B2002417E0082000EB44001949085CFB
:10158000072101EB4401174A515C00EB01201FFACF
:1015900080F94946404600F047FA601CC4B208F1A1
:1015A00001001FFA80F8B442E5DB0F4800780F49CC
:1015B00008701020487028128870CD7030120871A1
:1015C0004E7106210948FFF7EDFC074607498F7168
:1015D0003812C871082006490870FEF7F1FDBDE811
:1015E000F0870000A00000201C000020D200002096
:1015F0001E0000202DE9F0411A48C0781949897869
:1016000000EB012084B249F64040204486B21548E0
:1016100040791449097900EB012087B239463046F8
:1016200000F002FA1048007810490870062048704F
:1016300020128870CC700B480079087109484079F5
:10164000487106210948FFF7ADFC054607498D7131
:101650002812C871082006490870FEF7B1FDBDE8E0
:10166000F0810000A00000201C000020D20000201B
:101670001E0000202DE9FC5F002000903548C07856
:101680003449897800EB01201FFA80FBD8463148A5
:1016900040793049097900EB012085B22846E917E5
:1016A00005EB5171CC10E91705EB5171C910B5EB81
:1016B000C10100D0641C00272DE0F81C86B2002078
:1016C0002549885582461CE001A94046FFF742FDA6
:1016D0002148815DBDF8040000FA0AF00143C8B258
:1016E0001D49885508F101001FFA80F80BEB050031
:1016F000404502DC0120009006E00AF101001FFADB
:1017000080FABAF1080FDFDB00BF0098012800D192
:1017100003E0781C87B2A742CFDB00BF0F480078F8
:101720000D490870012048708C70E41C21460A485D
:10173000FFF738FC8146084901F80490601C84B228
:101740004FEA29200855601C05490870FEF738FD4E
:10175000BDE8FC9FA0000020D20000201C0000205B
:101760001E0000202DE9FC5F002000903848C07862
:101770003749897800EB01201FFA80FB42F2107094
:1017800058441FFA80F8324840793149097900EB12
:10179000012085B22846E91705EB5171CC10E917F5
:1017A00005EB5171C910B5EBC10100D0641C0027D5
:1017B0002FE0F81C86B200202649885582461EE09C
:1017C00001A94046FFF7C6FC2248805DBDF8041021
:1017D00001FA0AF108431F49885508F101001FFA70
:1017E00080F80BEB050042F210710844404502DC22
:1017F0000120009006E00AF101001FFA80FABAF118
:10180000080FDDDB00BF0098012800D103E0781C41
:1018100087B2A742CDDB00BF0F4800780D490870A2
:10182000022048708C70E41C21460A48FFF7BAFB7E
:101830008146084901F80490601C84B24FEA2920CF
:101840000855601C05490870FEF7BAFCBDE8FC9F0E
:10185000A0000020D20000201C0000201E0000205C
:101860002DE9F843002000902448C0782349897866
:1018700000EB01201FFA80F947F23050484487B24C
:101880001E4840791D49097900EB01201FFA80F8B4
:101890004FF6FF7000EA4804002512E0694638461A
:1018A000FFF7D6FCBDF800000112154AE81C1154E0
:1018B000BDF80000C1B2281D1154A81C85B2781CC7
:1018C00087B2A542EADB0F4800780D490870042072
:1018D00048708C70E01C84B221460948FFF762FB17
:1018E000064607490E55601C84B230120855601C2C
:1018F00005490870FEF764FCBDE8F883A0000020ED
:10190000D20000201C0000201E0000202DE9F8431A
:10191000002000902448C0782349897800EB0120FA
:101920001FFA80F949F64040484487B21E48407982
:101930001D49097900EB01201FFA80F84FF6FF706E
:1019400000EA4804002512E069463846FFF780FCAB
:10195000BDF800000112154AE81C1154BDF8000042
:10196000C1B2281D1154A81C85B2781C87B2A542AB
:10197000EADB0F4800780D490870032048708C702E
:10198000E01C84B221460948FFF70CFB06460749D4
:101990000E55601C84B230120855601C0549087051
:1019A000FEF70EFCBDE8F883A0000020D200002066
:1019B0001C0000201E00002010B5024614462246DE
:1019C000082C1DD2DFE804F004070A0D10131619C5
:1019D0000D4B197015E00D4B197012E00C4B19707E
:1019E0000FE00C4B19700CE00B4B197009E00B4B1E
:1019F000197006E00A4B197003E00A4B197000E0F9
:101A000000BF00BF002010BD8C0000208D00002012
:101A10008E0000208F000020900000209100002008
:101A2000920000209300002070B505460C4649F650
:101A30004441681A8D4245D02ADC47F24251A5EB59
:101A400001008D4279D00CDCA5F5E040A0F5A7603F
:101A50000A286BD2DFE800F042454B4E54575D60D8
:101A6000666B052872D008DC012869D0022870D086
:101A7000032871D0042859D174E0A0F51850FE381D
:101A800014D0012815D0022816D00328F3D116E06F
:101A90001428DED2DFE800F0CF191C1F6F727B7EA6
:101AA000878A93969FA2ABAEB7BAC3C66448048038
:101AB000C2E063484480BFE061488480BCE0604885
:101AC000C480B9E05E480481B6E05D484481B3E07B
:101AD0005B488481B0E05A48C481ADE05948048035
:101AE000AAE058484480006857490860A4E0554877
:101AF0000480A1E0534844800068544908609BE09A
:101B00005048048098E04F4844800068504908607D
:101B100092E04C4804808FE04A48448000684D4978
:101B2000086089E04748048086E006E083E0454895
:101B300044800068484908607EE0424804807BE0B9
:101B40004048448000684549086075E00DE000E0C9
:101B500002E03C4804806FE03A4844800068404915
:101B6000086069E03748048066E0364844800068D1
:101B70003C49086060E03C4804805DE03A484480AD
:101B800030490868FEF7F0FA3849086054E03648F2
:101B9000048051E0344844802A490868FEF7E4FA9A
:101BA0003349086048E03048048045E02E484480CE
:101BB00024490868FEF7D8FA2E4908603CE02A4814
:101BC000048039E0284844801E490868FEF7CCFAB2
:101BD0002949086030E0244804802DE022484480F0
:101BE00018490868FEF7C0FA2449086024E01E4836
:101BF000048021E01C48448012490868FEF7B4FACA
:101C00001F49086018E01848048015E01648448011
:101C10000C490868FEF7A8FA1A4908600CE0124857
:101C2000048009E01048448006490868FEF79CFAE1
:101C30001549086000E000BF00BF002070BD000033
:101C400034000020980000204400002048000020BC
:101C50004C000020500000205400002058000020BC
:101C60005C000020600000209C0000206400002038
:101C7000680000206C00002070000020740000202C
:101C8000780000207C0000208000002070B5054610
:101C90000E4600240CE0295D0748FFF716F800BF48
:101CA00080210548FEF76EFF0028F9D0601CC4B201
:101CB000B442F0DB70BD00000038014000C181403B
:101CC00001C0804101C0804100C1814001C080410C
:101CD00000C1814000C1814001C0804101C08041FC
:101CE00000C1814000C1814001C0804100C18140EC
:101CF00001C0804101C0804100C1814001C08041DC
:101D000000C1814000C1814001C0804100C18140CB
:101D100001C0804101C0804100C1814000C18140BB
:101D200001C0804101C0804100C1814001C08041AB
:101D300000C1814000C1814001C0804101C080419B
:101D400000C1814000C1814001C0804100C181408B
:101D500001C0804101C0804100C1814000C181407B
:101D600001C0804101C0804100C1814001C080416B
:101D700000C1814000C1814001C0804100C181405B
:101D800001C0804101C0804100C1814001C080414B
:101D900000C1814000C1814001C0804101C080413B
:101DA00000C1814000C1814001C0804100C181402B
:101DB00001C0804101C0804100C1814000C0C1011B
:101DC000C30302C2C60607C705C5C404CC0C0DCDAB
:101DD0000FCFCE0E0ACACB0BC90908C8D81819D91B
:101DE0001BDBDA1A1EDEDF1FDD1D1CDC14D4D5154B
:101DF000D71716D6D21213D311D1D010F03031F13B
:101E000033F3F23236F6F737F53534F43CFCFD3D6A
:101E1000FF3F3EFEFA3A3BFB39F9F83828E8E9295A
:101E2000EB2B2AEAEE2E2FEF2DEDEC2CE42425E50A
:101E300027E7E62622E2E323E12120E0A06061A17A
:101E400063A3A26266A6A767A56564A46CACAD6D2A
:101E5000AF6F6EAEAA6A6BAB69A9A86878B8B9799A
:101E6000BB7B7ABABE7E7FBF7DBDBC7CB47475B5CA
:101E700077B7B67672B2B373B17170B050909151BA
:101E80009353529296565797559594549C5C5D9DEA
:101E90005F9F9E5E5A9A9B5B9959589888484989DA
:101EA0004B8B8A4A4E8E8F4F8D4D4C8C448485458A
:101EB000874746868242438341818040DC1E00087A
:101EC00000000020A0000000E40C00087C1F0008B7
:101ED000A000002068040000F40C000800000000CE
:101EE00001020304010203040607080902040608AC
:101EF00000000000000000000100000000000000E1
:101F000014001400140014000A000A000A000A0059
:101F10000A000A000A000A00140014001400140049
:101F20003333933F0000A03FCDCCAC3F9A99B93FEB
:101F30006666C63F3333D33F0000E03FCDCCEC3F75
:101F4000920C0C00930C0C00940C0C00950C0C00E3
:101F5000960C0C00970C0C00980C0C00990C0C00C3
:101F60000000000000000000000000000000000071
:0C1F700000000000000000000000000065
:0400000508000131BD
:00000001FF
