:020000040800F2
:10000000F0150020450100084D010008D506000844
:1000100051010008530100085501000800000000CC
:100020000000000000000000000000005701000870
:1000300059010008000000005B0100085D01000894
:100040005F0100085F0100085F0100085F01000810
:100050005F0100085F0100085F0100085F01000800
:100060005F0100085F0100085F0100085F010008F0
:100070005F0100085F0100085F0100085F010008E0
:100080005F0100085F0100085F0100085F010008D0
:100090005F0100085F0100085F0100085F010008C0
:1000A0005F0100085F0100085F0100085F010008B0
:1000B000051600085F0100085F0100085F010008E5
:1000C0005F0100085F0100085F0100085F01000890
:1000D0005F010008C91A0008C11B00085F01000881
:1000E0005F0100085F0100085F0100085F01000870
:1000F0005F0100085F0100085F0100085F01000860
:100100005F0100085F0100085F0100085F0100084F
:10011000FD1900085F0100085F0100085F01000889
:100120005F0100085F0100085F0100085F0100082F
:10013000DFF80CD000F018F8004800471D26000832
:10014000F01500200648804706480047FEE7FEE716
:10015000FEE7FEE7FEE7FEE7FEE7FEE7FEE7FEE777
:10016000D114000831010008064C074D06E0E06894
:1001700040F0010394E8070098471034AC42F6D3EE
:10018000FFF7DAFF3035000850350008FF20094935
:100190000880002048808880C8804FF4FA70088169
:1001A000002048818881C881088248828882C8826C
:1001B000888070471C04002030B50546002405E007
:1001C0002146284600F054FF601CC4B2082CF7DB1F
:1001D00030BD000010B504480178044802F024FD49
:1001E00000200349087010BD310000206D0200207E
:1001F0003200002010B503480178034802F014FDD6
:1002000010BD000035000020030300204FF0E02166
:10021000096921F004014FF0E0221161C21700EBDF
:100220005272C2F3C702074B1A701946097801EBE4
:100230004102C2EBC1114FF6FF7202EAC101024A4C
:100240001180704724000020260000200149C8606A
:10025000704700000020024030B5044604254FF4EA
:10026000302000F06FF80546042D17D10C480069C6
:1002700040F002000A49086108464461006940F004
:10028000400008614FF4302000F05CF80546044857
:10029000006941F6FD71084001490861284630BDFA
:1002A0000020024004200B49C96801F0010109B196
:1002B00001200EE00749C96801F0040109B10220DC
:1002C00007E00449C96801F0100109B1032000E00A
:1002D00004207047002002400348006940F080007D
:1002E00001490861704700000020024070B50446D3
:1002F0000D460426F00200F025F80646042E11D122
:100300000948006940F00100074908612580F002B2
:1003100000F018F806460448006941F6FE710840EE
:1003200001490861304670BD00200240024803497F
:100330004860034848607047230167450020024039
:10034000AB89EFCD00B502460423FFF7ABFF0346B0
:1003500003E0FFF7A7FF0346521E012B01D1002A3D
:10036000F7D102B90523184600BD2DE9F041024638
:1003700000250026002000230024002791F803C058
:100380000CF00F0591F803C00CF0100CBCF1000F3D
:1003900003D091F802C04CEA050591F800C0BCF109
:1003A000000F31D0146800202BE04FF0010C0CFA44
:1003B00000F3B1F800C00CEA03069E4220D183008E
:1003C0004FF00F0C0CFA03F7BC4305FA03FC4CEAA0
:1003D000040491F803C0BCF1280F06D14FF0010CC2
:1003E0000CFA00FCC2F814C00AE091F803C0BCF19A
:1003F000480F05D14FF0010C0CFA00FCC2F810C0F8
:10040000401C0828D1D31460B1F800C0BCF1FF0F24
:1004100034DD546800202EE000F1080C4FF0010894
:1004200008FA0CF3B1F800C00CEA03069E4221D191
:1004300083004FF00F0C0CFA03F7BC4305FA03FCE2
:100440004CEA040491F803C0BCF1280F05D100F177
:10045000080C08FA0CF8C2F8148091F803C0BCF13B
:10046000480F07D100F1080C4FF0010808FA0CF80A
:10047000C2F81080401C0828CED35460BDE8F0813B
:10048000F0B50A46002300240021002500F00046B4
:10049000B6F1004F02D11D4EF16901E01B4E7168AB
:1004A000C0F3034583B200F44016B6F5401F08D1EF
:1004B00021F07061154E766826F07066134F7E60ED
:1004C00012E000F48016B6F5801F06D1032606FA66
:1004D00005F4A14341F0706106E0460D360103FAD0
:1004E00006F6B14341F0706122B1460D360103FAC0
:1004F00006F6314300F00046B6F1004F02D1034E3C
:10050000F16101E0014E7160F0BD000000000140AA
:10051000416170470161704710B5034693F8400090
:1005200093F84110884204D193F8420008B9FF20A3
:1005300010BD93F841001C5C184601F0D1FC00206E
:1005400083F842002046F3E72DE9F0410646424891
:100550000088401C40490880404800884FF6FF71E1
:1005600001EA80003E4908803E4801780078401C3E
:100570003C4A10703C48465400783C49097888420F
:1005800001D0BDE8F08137480078344909888842B5
:1005900005DA37480088401C35490880F1E73548BE
:1005A0000088401C334908802F4800782F4909787B
:1005B00088424BD12C484078032847D12E480088E8
:1005C000401C2D49088000212C482D4A1278815466
:1005D00025488078C11C244801F0B2FE0546224817
:1005E0008078001D20490F5C08468078C01C085C9C
:1005F00000EB072087B2BD4223D1002419E0600040
:10060000C01C1949085C4FEA00286000001D085C06
:1006100040441FFA80F81A48007800EB400101EBD3
:10062000C001184800EB41000E3020F81480601C17
:1006300084B2154800788442E1DB00200949087043
:1006400004E012480088401C104908800020054939
:100650000870087000BF94E7EC000020DE00002066
:10066000E4000020DC0000208C110020E1000020CC
:10067000EE000020E8000020EA000020F800002042
:10068000E000002038040020E2000020E600002006
:100690000020024A1168CA4390B27047080C01401A
:1006A00008B50121102000F0FBF9F020ADF80000A2
:1006B00010208DF8030003208DF8020069460448DD
:1006C000FFF753FE20210248FFF722FF08BD00007C
:1006D0000010014000BFFEE74CF6CC400149086025
:1006E000704700000030004010B500F013F810BD56
:1006F00070B505460C4645F2555000F01FF82846E7
:1007000000F010F8A0B200F013F800F003F8FFF7C3
:10071000E3FF70BD4AF6AA20014908607047000057
:100720000030004001494860704700000030004040
:1007300001498860704700000030004001490860AE
:10074000704700000030004008B50121042000F08F
:10075000A7F90121102000F0A3F90220ADF8000054
:1007600010208DF8030003208DF80200694614481C
:10077000FFF7FBFD4FF40070ADF80000694611482B
:10078000FFF7F3FD02210E48FFF7C2FE4FF40071A0
:100790000C48FFF7BFFE4FF4E13001F04DF90A4974
:1007A00049890A4A52F8210001F0BEF906498989AF
:1007B000064A52F8210001F0CFF800F0F3FE08BD20
:1007C00000080140001001401C04002038000020F7
:1007D00008B50121082000F063F90121084600F066
:1007E0005FF901210A48FFF74BFE01210948FFF795
:1007F00047FE4FF6FF70ADF8000048208DF803006B
:1008000003208DF8020069460348FFF7AEFD08BDDE
:100810000004300000023000000C014008B5012146
:10082000102000F03DF90F20ADF8000010208DF8E9
:10083000030003208DF8020069460448FFF795FD88
:1008400002210248FFF764FE08BD000000100140CD
:1008500070B50446002536E004F0010020B1012106
:100860002648FFF755FE03E001212448FFF752FE1A
:1008700008212248FFF74EFE00BF00BF00BF00BFA7
:1008800000BF00BF00BF00BF00BF00BF00BF00BF70
:1008900000BF00BF00BF00BF08211848FFF738FEA7
:1008A00000BF00BF00BF00BF00BF00BF00BF00BF50
:1008B00000BF00BF00BF00BF00BF00BF00BF00BF40
:1008C0006408681CC5B21C2DC6DB04210B48FFF769
:1008D0001FFE00BF00BF00BF00BF00BF00BF00BFC2
:1008E00000BF00BF00BF00BF00BF00BF00BF00BF10
:1008F00000BF04210148FFF70DFE70BD001001404C
:1009000008B50121084600F0CBF84FF4A06000F0D4
:1009100071F81C208DF8000001208DF801008DF881
:1009200002008DF80300684600F02CF825208DF8B1
:10093000000000208DF8010002208DF80200012047
:100940008DF80300684600F01DF826208DF80000A1
:1009500000208DF8010001208DF802008DF80300C1
:10096000684600F00FF834208DF8000000208DF864
:1009700001008DF8020001208DF80300684600F0A8
:1009800001F808BD70B5002100230F22C47804B31C
:10099000154C246804F4E064C4F5E064210AC1F154
:1009A0000403CA40447804FA03F1847814402143D4
:1009B00009010E4C0678A155047804F01F050124A6
:1009C000AC4005786D11AD0005F1E025C5F800419A
:1009D00009E0047804F01F050124AC40044D0678BA
:1009E000761145F8264070BD0CED00E000E400E013
:1009F00080E100E002490143024A116070470000B3
:100A00000000FA050CED00E010B503460C4693F823
:100A1000420070B993F840001C54184601F0DFF909
:100A200093F8400093F84110884202D1012083F8E6
:100A3000420010BD014691F8400091F841209042DB
:100A400007DA91F84000403091F84120801AC0B296
:100A5000704791F8400091F84120801AC0B2F7E742
:100A600029B1064AD2690243044BDA6104E0034A21
:100A7000D2698243014BDA617047000000100240E6
:100A800029B1064A12690243044B1A6104E0034A81
:100A900012698243014B1A61704700000010024046
:100AA00029B1064A92690243044B9A6104E0034A61
:100AB00092698243014B9A61704700000010024026
:100AC00029B1064AD2680243044BDA6004E0034AC3
:100AD000D2688243014BDA60704700000010024088
:100AE00030B500210022002400232D4D6D6805F053
:100AF0000C0121B1042905D0082923D105E0294D95
:100B0000056022E0274D05601FE0254D6D6805F466
:100B10007012234D6D6805F48034022505EB924276
:100B20001CB9214D554305600BE01D4D6D6805F462
:100B300000351DB11C4D5543056002E0194D55436C
:100B4000056002E0174D056000BF00BF144D6D68E1
:100B500005F0F0010909154D6B5C0568DD40456045
:100B60000F4D6D6805F4E061090A104D6B5C456836
:100B7000DD4085600A4D6D6805F46051C90A0B4D72
:100B80006B5C4568DD40C560054D6D6805F440410E
:100B9000890B074D6B5CC568B5FBF3F5056130BD8E
:100BA0000010024000127A0000093D000F000020F2
:100BB0001F0000202DE9F04105460E46174600248F
:100BC00043E0254901EB4400B0F8000C4FF6FF71FB
:100BD000884209D1FFF7AAFB204901EB440000211C
:100BE000FFF784FBFFF778FBAC420BDA1A4B03EB01
:100BF0004402B2F8001C4AF22802224490B200F0EB
:100C00007BF820E0A819A0420CDD134B03EB440253
:100C1000B2F8001C4AF210422244521B90B200F07B
:100C20006BF810E0A8193844A0420CDD0A4B03EB26
:100C30004402B2F8001CAA194AF6E03323449A1A77
:100C400090B200F059F8601C84B2A8193844A04250
:100C5000B7DCBDE8F081000000F0000800FC0008EF
:100C600001464AF2280081420BDB4AF210408142E1
:100C700007DAA1F5204028381B4A52F820000088E6
:100C800070474AF2104081420BDB4AF2F870814211
:100C900007DAA1F524401038144A52F820000088E1
:100CA000EEE74AF2F87081420BDB4AF6E03081420F
:100CB00007DAA1F52740F8380D4A52F820000088DD
:100CC000DEE74AF6E03081420BDB4AF6C87081422B
:100CD00007DAA1F52B40E038064A52F820000088D8
:100CE000CEE74FF6FE70CBE7882E0008882F00086D
:100CF000083200081035000870B504460D464AF267
:100D0000280084420BDB4AF21040844207DAA4F543
:100D100020402838254951F82000058044E04AF257
:100D2000104084420BDB4AF2F870844207DAA4F5E3
:100D3000244010381E4951F82000058034E04AF262
:100D4000F87084420BDB4AF6E030844207DAA4F5FF
:100D50002740F838174951F82000058024E04AF66A
:100D6000E03084421FDB4AF6C87084421BDAA4F5E7
:100D70002B40E038104951F820000580A4F52B40A5
:100D8000E038042804D10D4951F8250000F0CCFECC
:100D9000A4F52B40E038052804D1084951F8250076
:100DA00000F0DAFD00E070BD00BFFCE7882E00080F
:100DB000882F00080832000810350008380000208D
:100DC00010B5044640F2EA20015BB4F8FA0201EBE8
:100DD0004001B4F80A0301EB8001B4F81A0301EBF7
:100DE000C001B4F82A0301EB0011B4F83A0301EB97
:100DF0004011B4F84A0301EB8011B4F85A0301EB37
:100E0000C0106082A08A2083A17CA176A07C01F022
:100E100073F8A169C843FFF71BFD10BD10B5FFF7BC
:100E20003FFC00200C49488200210B48A0F8EA1240
:100E3000A0F8FA12A0F80A13A0F81A13A0F82A13BF
:100E4000A0F83A13A0F84A13A0F85A130020034957
:100E50000870FFF7FDFC10BD1C040020F20000200C
:100E60002DE9F04105460E461446224805702249F8
:100E70000C70012021490860002704E0002020496F
:100E8000C855781C87B2322FF8DB00271C48057044
:100E900003201B49487030128870CE7020120871F0
:100EA0004C710621164801F04BFA8046144981F82E
:100EB00006804FEA2820C8710821114801F0CCFEB5
:100EC000012001F059FA00200C490860052000EBD0
:100ED00044000C49088000200B490870094800882C
:100EE0004FF6FF7101EA8000084908800120BDE843
:100EF000F0810000E1000020E20000208401214296
:100F0000BE110020DE000020DC000020E4000020F4
:100F100070B51848C08860BB1748FFF78BFD0446C2
:100F200024B3012015490860002518E01448007812
:100F300088B91148FFF7F0FA06463146114800F02B
:100F40004AFF00BF80210F4800F078FE0028F9D04A
:100F5000681CC5B203E000200949087002E0601C6B
:100F60008542E3DB00BF00200449086002200149FC
:100F7000C88270BD1C040020F8010020A401224298
:100F80000C000020004C004010B500F001F810BD2E
:100F90000CB50020019000903348006840F4803088
:100FA0003149086000BF3048006800F4003000900C
:100FB0000198401C0190009818B90198B0F5A06FF5
:100FC000F1D12948006800F4003010B101200090F0
:100FD00001E0002000900098012843D123480068D8
:100FE00040F01000214908600846006820F0030026
:100FF00008600846006840F0020008601A4840682F
:10100000194948600846406848600846406840F40E
:10101000806048600846406820F47C1048600846BC
:10102000406840F4E81048600846006840F080706E
:10103000086000BF0C48006800F000700028F9D07C
:101040000948406820F003000749486008464068A6
:1010500040F00200486000BF0348406800F00C0008
:101060000828F9D10CBD0000001002400020024009
:1010700070B585B002460020029002F5377000EB93
:101080000110438802F5377000EB0110848802F5E7
:10109000377000EB0110807900F001008DF8080036
:1010A00002F5377000EB0110C088C0F300208DF806
:1010B000090002F5377000EB0110007A00F0010022
:1010C0008DF80A0002F5377000EB01100089C0F3BB
:1010D00000208DF80B009DF8080030B902F537703C
:1010E00000EB01100088012832D102F5377000EBC7
:1010F00001108079C0F3C4008DF8100002F537703C
:1011000000EB01108079C0F341008DF80C009DF8D0
:10111000100000EB400505EBC00502F11C0000EBE0
:1011200045000E309DF80C5030F81500ADF8000069
:10113000BDF80000984203DD0120E44D28701CE05A
:10114000BDF80000A04218DA0020E04D287014E03D
:1011500002F5377000EB01100088022803D101204E
:10116000DA4D287009E002F5377000EB01100088B5
:10117000032802D10020D54D28709DF8090088B3BE
:1011800002F5377000EB0110C088C00A8DF811001D
:1011900002F5377000EB0110C088C0F341208DF8D4
:1011A0000D009DF8110000EB400505EBC00502F1B4
:1011B0001C0000EB45000E309DF80D5030F8150076
:1011C000ADF80200BDF80200984203DD0120BF4DDA
:1011D00068701DE0BDF80200A04219DA0020BB4D86
:1011E000687015E0FFE702F5377000EB011000882A
:1011F000022803D10120B54D687009E002F537706F
:1012000000EB01100088032802D10020AF4D687068
:101210009DF80A0090B302F5377000EB0110807959
:10122000C0F3C4008DF8120002F5377000EB011016
:101230008079C0F341008DF80E009DF8120000EB9C
:10124000400505EBC00502F11C0000EB45000E3027
:101250009DF80E5030F81500ADF80400BDF80400FC
:10126000984203DD0120994DA8701DE0BDF80400EF
:10127000A04219DA0020954DA87015E0FFE702F5AD
:10128000377000EB01100088022803D101208F4D38
:10129000A87009E002F5377000EB01100088032800
:1012A00002D10020894DA8709DF80B0088B302F58B
:1012B000377000EB0110C088C00A8DF8130002F5EA
:1012C000377000EB0110C088C0F341208DF80F008B
:1012D0009DF8130000EB400505EBC00502F11C0072
:1012E00000EB45000E309DF80F5030F81500ADF8BA
:1012F0000600BDF80600984203DD0120734DE8703A
:101300001DE0BDF80600A04219DA00206F4DE8701C
:1013100015E0FFE702F5377000EB011000880228A6
:1013200003D10120694DE87009E002F5377000EB48
:1013300001100088032802D10020644DE87002F5F6
:10134000377000EB0110008830B1022805D0032867
:1013500043D004287AD181E0B3E05C4800785B4D4B
:101360006D782840594DAD782840584DED7828408B
:10137000F8B19DF808009DF8095028439DF80A50DF
:1013800028439DF80B50284398B102F5377000EBC5
:101390000110408930B9012502F5377000EB0110CA
:1013A000C58119E0002502F5377000EB0110C581F9
:1013B00012E002F5377000EB0110408930B90025CA
:1013C00002F5377000EB0110C58105E0012502F53B
:1013D000377000EB0110C58173E03C4800783B4D4D
:1013E0006D782843394DAD782843384DED78284342
:1013F000F8B19DF808009DF8095028439DF80A505F
:1014000028439DF80B50284398B102F5377000EB44
:101410000110408930B9012502F5377000EB011049
:10142000C5811AE0002502F5377000EB0110C58177
:1014300013E002F5377000EB0110408938B9002540
:1014400002F5377000EB0110C58106E038E0012598
:1014500002F5377000EB0110C58132E0908A02F589
:10146000377505EB01152E7B0125B540284098B155
:1014700002F5377000EB0110408930B9012502F503
:10148000377000EB0110C58119E0002502F53770B7
:1014900000EB0110C58112E002F5377000EB01107E
:1014A000408930B9002502F5377000EB0110C58185
:1014B00005E0012502F5377000EB0110C58100E061
:1014C00000BF00BF002005B070BD0000F300002089
:1014D00010B51348006840F0010011490860084643
:1014E0004068104908400E494860084600680E49A7
:1014F00008400B4908600846006820F48020086016
:101500000846406820F4FE0048604FF41F008860E1
:10151000FFF73AFD4FF000600449086010BD00007D
:10152000001002400000FFF8FFFFF6FE08ED00E0AB
:1015300019490988B1F5FA7F19DAC17E21F0010154
:10154000491CC1761549097841F00801134A117008
:1015500013490978012905D1C17E21F00401091D33
:10156000C17618E0C17E21F00402C27613E00A4978
:101570000988B1F5FA7F0EDDC17E21F00102C27645
:101580000649097801F00D01044A117011460978E5
:1015900021F0080111707047F00000207800002051
:1015A0007C0000200EB501210846FFF759FA4FF0E4
:1015B000804000F081F80121880700F06EF80920D2
:1015C000ADF8040041F61F40ADF800000020ADF872
:1015D0000600ADF8020069464FF0804000F06AF95D
:1015E0000121880700F056F801221146900700F00B
:1015F00057F90121880700F053F801210846FFF749
:101600002FFA0EBD10B50121880700F043F81B48E2
:101610000078401C19490870084600780A2801DD46
:10162000FFF762F816480088401C154908801548E5
:101630000088401C1349088008460088B0F57A7F6E
:1016400001DB0020088010480088401C0E490880FB
:101650000E48007800280EDD0C480078401E0B492B
:1016600008700846007830B909480078002802DD83
:10167000002007490870FFF74BFC10BD0D0000204B
:1016800000000020F00000200200002030000020B8
:1016900032000020CA4302827047CA430282704768
:1016A00021B1028842F00102028004E002884FF674
:1016B000FE731A400280704710B5044668488442A1
:1016C00008D10121C014FFF7FBF90021E014FFF756
:1016D000F7F9C4E0B4F1804F08D101210846FFF7C3
:1016E000CFF900210120FFF7CBF9B8E05D48844233
:1016F00008D101210220FFF7C3F900210220FFF7E2
:10170000BFF9ACE05848844208D101210420FFF71A
:10171000B7F900210420FFF7B3F9A0E05348844251
:1017200008D101210820FFF7ABF900210820FFF7BD
:10173000A7F994E04E48844208D101211020FFF718
:101740009FF900211020FFF79BF988E04948844267
:1017500008D101212020FFF793F900212020FFF775
:101760008FF97CE04448844208D101214014FFF7FE
:10177000A7F900216014FFF7A3F970E03F48844205
:1017800009D10121C804FFF79BF900214FF4002083
:10179000FFF796F963E03A48844209D10121080530
:1017A000FFF78EF900214FF48010FFF789F956E01A
:1017B0003448844209D101214805FFF781F900210D
:1017C0004FF40010FFF77CF949E02F48844208D11C
:1017D00001214020FFF754F900214020FFF750F984
:1017E0003DE02A48844208D101218020FFF748F9D2
:1017F00000218020FFF744F931E02548844208D1D8
:1018000001218015FFF73CF90021A015FFF738F9F9
:1018100025E02048844209D101210804FFF750F94E
:1018200000214FF48030FFF74BF918E01A4884424A
:1018300009D101214804FFF743F900214FF400309A
:10184000FFF73EF90BE01548844208D101218804D6
:10185000FFF736F900214FF48020FFF731F910BD72
:10186000002C01400004004000080040000C004033
:10187000001000400014004000340140004C0140C2
:10188000005001400054014000180040001C00407E
:101890000020004000400140004401400048014059
:1018A0001AB183890B43838102E083898B4383814F
:1018B00070470000002202881D4B98420ED01D4B3D
:1018C00098420BD0B0F1804F08D01B4B984205D006
:1018D0001A4B984202D01A4B984204D14FF68F739C
:1018E0001A404B881A43174B984207D0164B984220
:1018F00004D04FF6FF431A40CB881A4302808B88EE
:1019000083850B8803850A4B98420BD0094B98427C
:1019100008D00E4B984205D00D4B984202D00D4B8B
:10192000984201D10B7A038601238382704700001D
:10193000002C014000340140000400400008004039
:10194000000C004000100040001400400040014026
:10195000004401400048014010B586B00446012112
:10196000C804FFF77DF801211020FFF799F84FF424
:101970008060ADF8140018208DF8170003208DF852
:10198000160005A91B48FEF7F0FC4FF40060ADF807
:10199000140003208DF8160048208DF8170005A9C3
:1019A0001448FEF7E2FC01940020ADF80800ADF801
:1019B0000A00ADF80C00ADF810000C20ADF80E00D8
:1019C00001A90D4800F096F9002240F227710A485B
:1019D00000F06BF9012240F22551074800F065F94B
:1019E0004021054800F006F90121034800F01AF9EA
:1019F00006B010BD00100140004C004010B540F290
:101A000025510A4800F027F948B10848001D008810
:101A10000749087008460178064800F0DCF94FF4E1
:101A20005871024800F0EFF810BD0000004C004073
:101A30000E0000200038014010B586B00446012198
:101A400044F20500FFF72CF84FF40070ADF81400D5
:101A500018208DF8170003208DF8160005A91848E6
:101A6000FEF783FC4FF48060ADF8140048208DF839
:101A7000170005A91248FEF778FC01940020ADF884
:101A80000800ADF80A00ADF80C00ADF810000C200D
:101A9000ADF80E0001A90B4800F02CF9012240F22C
:101AA0002551084800F001F901228021054800F085
:101AB000FCF80121034800F0B5F806B010BD0000A5
:101AC000000801400038014010B52021104800F006
:101AD000B5F801281BD10E4800F078F90D490E4ADF
:101AE0001278885401200D4908700A480A4A127871
:101AF000815C0B48FEF788FF0A200A4908700648F7
:101B00000078401C0449087000200149088010BD7D
:101B1000003801403B020020320000200C00002071
:101B2000F80100203000002010B586B004460121E5
:101B30002048FEF795FF0420ADF8140018208DF81A
:101B4000170003208DF8160005A91B48FEF70DFCB1
:101B50000820ADF8140048208DF8170005A9164894
:101B6000FEF703FC01940020ADF80800ADF80A0070
:101B7000ADF80C00ADF810000C20ADF80E0001A976
:101B80000E4800F0B7F8002240F227710B4800F031
:101B90008CF8012240F22551084800F086F84021D7
:101BA000064800F027F80121044800F03BF806B091
:101BB00010BD000004000200000801400044004085
:101BC00010B540F225510A4800F045F850B10849D7
:101BD000091D0988C8B2FEF7B7FC40F22551044838
:101BE00000F011F84FF45871014800F00CF810BDE6
:101BF0000044004001F40072B2F5007F00D100BF44
:101C0000CA430280704710B50022002340F66A14D0
:101C1000A14200D100BF0A1201249440A3B2DC43C8
:101C2000048010BD21B1828942F40052828104E017
:101C300082894DF6FF731A40828170470246002068
:101C4000B1F5007F00D100BF13880B400BB101201C
:101C500000E00020704770B50246002400230025F4
:101C6000002040F66A16B14200D100BFC1F3421510
:101C700001F01F03012606FA03F3012D02D1968914
:101C8000334006E0022D02D1168A334001E0968AE5
:101C900033400C12012606FA04F41688344013B1BE
:101CA0000CB1012000E0002070BDF0B50346002417
:101CB00000260025002040F66A17B94200D100BF77
:101CC0001846C1F3421401F01F06012707FA06F572
:101CD000012C01D10C3004E0022C01D1103000E0C5
:101CE00014301AB107682F43076002E00768AF435A
:101CF0000760F0BD2DE9F04786B005460E4600248A
:101D0000A24600BFA1460027B08900B100BF2F4600
:101D10002C8A4CF6FF700440F08804432C82AC8976
:101D20004EF6F3100440B0883189084371890843A6
:101D30000443AC81AC8A4FF6FF400440B0890443B1
:101D4000AC8201A8FEF7CCFE1F48874202D1DDF825
:101D500010A001E0DDF80CA0A88900F4004040B11B
:101D60000AEBCA0000EB0A1031684900B0FBF1F839
:101D700007E00AEBCA0000EB0A1031688900B0FBEB
:101D8000F1F86420B8FBF0F004012009642101FBA4
:101D90001089A88900F4004040B1322000EBC9004E
:101DA000B0FBF1F000F00700044308E0322000EB44
:101DB00009106421B0FBF1F000F00F0004432C8106
:101DC00006B0BDE8F0870000003801400146888871
:101DD000C0F308007047C1F308028280704790F892
:101DE0004020511CCA1701EB92629211A1EB8212A2
:101DF00080F84020704700002DE9F0470024A246FB
:101E000000272AE007EB470000EBC701314800EB51
:101E10004100068904EB460084B2002519E04AF22D
:101E2000F871294401EB870188B2FEF719FF824659
:101E30004FEA2A22E01C711BA0EB410026490A54FC
:101E4000201D711BA0EB4100234901F800A0681C74
:101E500085B2B542E3DB781C87B21E481C38808807
:101E6000B842CFDC1B481C38B0F800901A4981F802
:101E70000090032048708C7008468078C01C8870E1
:101E8000E01C84B213481C38807C0855601C84B266
:101E900010481C38808A00120855601C84B20D4816
:101EA0001C38007D0855601C84B221460A4800F0A9
:101EB00047FA8046084901F80480601C84B24FEA62
:101EC00028200855601C05490870FEF793F9BDE805
:101ED000F0870000380400200303002035000020B4
:101EE00090F84120511CCA1701EB92629211A1EBAC
:101EF000821280F84120704770B50446002536E014
:101F000004F0010020B110212648FEF703FB03E096
:101F100010212448FEF7FCFA80212248FEF7FAFA45
:101F200000BF00BF00BF00BF00BF00BF00BF00BFB9
:101F300000BF00BF00BF00BF00BF00BF00BF00BFA9
:101F400080211848FEF7E4FA00BF00BF00BF00BFC1
:101F500000BF00BF00BF00BF00BF00BF00BF00BF89
:101F600000BF00BF00BF00BF6410681CC5B2082DD1
:101F7000C6DB40210B48FEF7CBFA00BF00BF00BF15
:101F800000BF00BF00BF00BF00BF00BF00BF00BF59
:101F900000BF00BF00BF00BF00BF40210148FEF7E7
:101FA000B9FA70BD001001402DE9F04105460E461A
:101FB0001746FEF7BBF93520FEF748F92148FEF732
:101FC0004BF9002436E0AC420DDA4AF228012144F4
:101FD00088B2FEF745FE80461A4901EB44004146AF
:101FE000FEF784F924E0A819A0420EDD611B4AF235
:101FF0001042114488B2FEF733FE8046114901EBCE
:1020000044004146FEF772F912E0A8193844A04294
:102010000EDDA919611A4AF6E032114488B2FEF7C2
:102020001FFE8046074901EB44004146FEF75EF97A
:10203000601C84B2A8193844A042C4DCFEF74CF9F5
:10204000BDE8F08100FC000802E008C8121F08C1CA
:10205000002AFAD170477047002001E001C1121F29
:10206000002AFBD17047000070B5B1480078042801
:1020700078DDB0484078052875D008DC01282FD0DD
:1020800002284ED0032874D004286ED192E006288E
:102090006CD00F286BD010286AD0FF28F5D1A44847
:1020A000007808281BDBA3480078A34909888842E8
:1020B00015D106219F4800F043F904469D48C57993
:1020C000807900EB052085B2AC4205D19948407873
:1020D000012801D100F0E0FB00209549087024E1BF
:1020E0009348007808281BDB9248007892490988B9
:1020F000884215D106218F4800F022F904468D4808
:10210000C579807900EB052085B2AC4205D18948BC
:102110004078012801D100F0BFFB002084490870FD
:1021200003E18348007808281BDB82480078824955
:102130000988884215D106217E4800F001F904463D
:102140007C48C579807900EB052085B2AC4205D189
:1021500078484078022801D100F020FC0020744922
:102160000870E2E0E2E046E003E0DDE06AE08AE0F9
:10217000ACE06F48007808281BDB6E4800786E4999
:102180000988884215D106216A4800F0D9F804462A
:102190006848C579807900EB052085B2AC4205D14D
:1021A00064484078032801D100F0CEFC002060494B
:1021B0000870BAE05E48007808281BDB5D480078AC
:1021C0005D490988884215D106215A4800F0B8F8BF
:1021D00004465848C579807900EB052085B2AC42A9
:1021E00005D154484078042801D100F057FC002064
:1021F0004F49087099E04E480078082821DB0620F6
:102200004E4908704B4800784B490988884218D1DC
:102210000621484800F094F804464648C57980797C
:1022200000EB052085B2AC4208D142484078052831
:1022300004D107204149087000F030F900203C49E2
:10224000087072E03A48007808281BDB39480078AB
:1022500039490988884215D10621364800F070F8BE
:1022600004463448C579807900EB052085B2AC423C
:1022700005D130484078062801D100F0BFFA00208F
:102280002B49087051E02B48867909362848007898
:10229000B0421ADB2748007827490988884211D1C3
:1022A000B01E81B2234800F04BF80446B01E21490D
:1022B000095C701E1F4A105C01EB0020A04201D196
:1022C00000F078F800201A4908702EE0194840798B
:1022D0001849097900EB012086B24FF6FF7000EA39
:1022E000460606F1090086B211480078B0421ADBB2
:1022F0001048007810490988884211D1B01E81B277
:102300000C4800F01DF80446701E0A490D5CB01E12
:10231000085C00EB052085B2AC4201D100F010FA58
:1023200000200349087000E000BF00BF70BD00003E
:10233000320000203B0200201C0400202E00002060
:1023400070B502460C46FF25FF2309E012F8010B89
:1023500080EA05010648405C80EA03050548435CC5
:102360002000A4F10106B4B2F0D145EA032070BD0B
:10237000882C0008882D000801460D4A12884A431F
:102380004FF0E0235A6100229A6101221A6100BFD6
:102390004FF0E022106900F001021AB100F480321F
:1023A000002AF5D000224FF0E0231A619A617047AD
:1023B000260000202DE9F84F002000903348C07817
:1023C0003249897800EB012085B22F462F484079A9
:1023D0002E49097900EB012084B22046E11704EB75
:1023E00051714FEAE10AE11704EB5171C910A4EBF6
:1023F000C10119B10AF101001FFA80FA002624E098
:102400004FF0000917E02149F01D085C40FA09F07F
:1024100000F0010B5946384600F0F6FB781C87B2F5
:1024200028190830B84202DC0120009006E009F1CA
:1024300001001FFA80F9B9F1080FE4DB00BF009832
:10244000012800D103E0701C86B25645D8DB00BFDE
:102450000F4800780F4908700F20487028128870C4
:10246000CD70201208714C7106210A48FFF768FFF1
:102470008046084981F806804FEA2820C871082064
:1024800005490870FDF7A6FEBDE8F88F3B02002065
:102490001C0400206D020020310000202DE9F041D5
:1024A0001648C0781549897800EB012087B2B846F4
:1024B000124840791149097900EB012086B2B6F53E
:1024C0007F4F01D1012501E006B90025294640468C
:1024D00000F09AFB002405E00848005D0849085513
:1024E000601CC4B2074800788442F5DB05480078D8
:1024F00005490870FDF76EFEBDE8F0813B02002043
:102500006D020020320000203100002010B502468C
:10251000134642F21074181BA34230D007DC082B7C
:1025200050D2DFE803F00C1014181C2024280828CF
:1025300048D2DFE800F047282D32373B3F4323489D
:10254000007808803FE02248007808803BE021487E
:102550000078088037E020480078088033E01F4882
:10256000007808802FE01E48007808802BE01D4886
:102570000078088027E01C480078088023E01B488A
:10258000006808801FE01948001D006808801AE0F4
:10259000164808300068088015E014480C300068C0
:1025A000088010E01248007808800CE0114800789C
:1025B000088008E010480078088004E00F480078A0
:1025C000088000E000BF00BF002010BDC800002050
:1025D000C9000020CA000020CB000020CC00002051
:1025E000CD000020CE000020CF000020108122422C
:1025F000C4000020C5000020C6000020C700002045
:10260000024640F23D40824203DA034830F81200AD
:102610000880002070470000780700200024FDF7A4
:10262000B5FD0822A0214020FEF7C4FAFEF7F6FB14
:10263000FEF766F94820FDF7E9FDFEF785F8FEF79D
:10264000C7F8FEF7EBF8C8210020FEF751F867E065
:10265000FEF71EF833490880FEF71AF832498882DF
:102660000846FEF765FFFFF7FFFC2F48FDF7A4FDC6
:102670002D48FEF7A5FB2C48808840B900202B4947
:1026800008702B4908702B490880002439E029483C
:102690000088FA2835DD00202649088022488088F5
:1026A000A04227DD2148047003461B7803EB430555
:1026B00005EBC3051C4B1C3303EB45031A8903468A
:1026C0001B7803EB430505EBC305174B1C3303EBEA
:1026D0004503D98803461B7803EB430505EBC30587
:1026E000114B1C3303EB45039878FEF7B9FB01202F
:1026F00011490855601CC4B20B488088A04200DC18
:1027000000240948C08801280AD1074800890B49DC
:102710000988884204DA002008490880FFF76CFB2A
:1027200096E700007A0000201C040020E000002052
:102730007C00002000000020F800002002000020A3
:102740002DE9F0472948C0782849897800EB012015
:1027500085B249F6404028441FFA80F82348407962
:102760002249097900EB012086B2002417E00820F5
:1027700000EB44001D49085C072101EB44011B4AA2
:10278000515C00EB01201FFA80F949464046FEF7F4
:10279000B3FA601CC4B208F101001FFA80F8B44219
:1027A000E5DBB5F5806F04DB0822A0214020FFF7B0
:1027B000FBFB0F4800780F49087010204870281262
:1027C0008870CD70301208714E7106210948FFF7EC
:1027D000B7FD074607498F713812C87108200649AE
:1027E0000870FDF7F7FCBDE8F08700003B02002011
:1027F0001C0400206D020020310000202DE9F04172
:102800002048C0781F49897800EB012084B249F63E
:102810004040204486B21C4806801A484079194935
:10282000097900EB012087B2174807803946304606
:10283000FEF762FAB4F5806F04DB0822A021402085
:10284000FFF7B2FB11480078114908700620487064
:1028500020128870CC700B480079087109484079C3
:10286000487106210A48FFF76BFD054608498D713E
:102870002812C871082007490870FDF7ABFCBDE8B5
:10288000F08100003B020020280000201C040020F2
:102890006D020020310000202DE9FC5F0020009037
:1028A0000120394908703948C0783849897800EBE7
:1028B00001201FFA80FBD846344840793349097912
:1028C00000EB012085B22846E91705EB5171CC10C9
:1028D000E91705EB5171C910A5EBC10109B1601CE5
:1028E00084B200272DE0F81C86B2002028498855C4
:1028F00082461CE001A94046FFF708FE2448815D9E
:10290000BDF8040000FA0AF00143C8B22049885516
:1029100008F101001FFA80F80BEB0500404502DCCE
:102920000120009006E00AF101001FFA80FABAF1D6
:10293000080FDFDB00BF0098012800D103E0781CFE
:1029400087B2A742CFDB00BF03200F4908701148B0
:1029500000780F490870012048708C70E01C84B228
:1029600021460B48FFF7ECFC8146094901F8049029
:10297000601C84B24FEA29200855601C0649087083
:10298000FDF728FCBDE8FC9F2E0000203B02002044
:102990006D0200201C040020310000202DE9FC5FA6
:1029A000002000903948C0783849897800EB012030
:1029B0001FFA80FB42F2107058441FFA80F8334827
:1029C00040793249097900EB012085B22846E917A0
:1029D00005EB5171CC10E91705EB5171C910A5EB4E
:1029E000C10109B1601C84B200272FE0F81C86B237
:1029F00000202749885582461EE001A94046FFF77E
:102A000085FD2348805DBDF8041001FA0AF10843F2
:102A10001F49885508F101001FFA80F80BEB0500EB
:102A200042F210710844404502DC0120009006E0AB
:102A30000AF101001FFA80FABAF1080FDDDB00BFCE
:102A40000098012800D103E0781C87B2A742CDDBB3
:102A500000BF104800780E490870022048708C7042
:102A6000E01C84B221460A48FFF76AFC8146084907
:102A700001F80490601C84B24FEA29200855601CBC
:102A800005490870FDF7A6FBBDE8FC9F3B0200204E
:102A90006D0200201C040020310000202DE9F843C5
:102AA000002000902448C0782349897800EB012059
:102AB0001FFA80F947F23050484487B21E484079E7
:102AC0001D49097900EB01201FFA80F84FF6FF70CD
:102AD00000EA4804002512E069463846FFF790FDF9
:102AE000BDF800000112154AE81C1154BDF80000A1
:102AF000C1B2281D1154A81C85B2781C87B2A5420A
:102B0000EADB0F4800780D490870042048708C708B
:102B1000E01C84B221460948FFF712FC064607492B
:102B20000E55601C84B230120855601C05490870AF
:102B3000FDF750FBBDE8F8833B0200206D0200204A
:102B40001C040020310000202DE9F0474FF000095F
:102B50002748C0782649897800EB01201FFA80FABF
:102B600049F64040504486B22148407920490979CD
:102B700000EB01201FFA80F84FF6FF7000EA4804CE
:102B80001C480680002515E04AF22800FEF768F888
:102B9000194908803046FEF763F881464FEA29213B
:102BA000164AE81C1154281D02F80090A81C85B292
:102BB000701C86B2A542E7DB114800780F49087007
:102BC000032048708C70E01C84B221460B48FFF74C
:102BD000B7FB074609490F55601C84B238120855E7
:102BE000601C08490870FDF7F5FABDE8F0870000A1
:102BF0003B0200202C0000202A0000206D02002053
:102C00001C0400203100002010B50246134601F0DC
:102C10000104044800EB0210C48100BF00BF00BFE4
:102C2000002010BDF806002070B505460E460024B1
:102C30000CE0295D0748FFF7CEF800BF802105486A
:102C4000FEF7FCFF0028F9D0601CC4B2B442F0DBF0
:102C500070BD00000038014070B505460E460024E6
:102C60000CE0295D0748FFF7B6F800BF8021054852
:102C7000FEF7E4FF0028F9D0601CC4B2B442F0DBD8
:102C800070BD00000044004000C1814001C080418F
:102C900001C0804100C1814001C0804100C181402C
:102CA00000C1814001C0804101C0804100C181401C
:102CB00000C1814001C0804100C1814001C080410C
:102CC00001C0804100C1814001C0804100C18140FC
:102CD00000C1814001C0804100C1814001C08041EC
:102CE00001C0804100C1814000C1814001C08041DC
:102CF00001C0804100C1814001C0804100C18140CC
:102D000000C1814001C0804101C0804100C18140BB
:102D100000C1814001C0804100C1814001C08041AB
:102D200001C0804100C1814000C1814001C080419B
:102D300001C0804100C1814001C0804100C181408B
:102D400000C1814001C0804100C1814001C080417B
:102D500001C0804100C1814001C0804100C181406B
:102D600000C1814001C0804101C0804100C181405B
:102D700000C1814001C0804100C1814001C080414B
:102D800001C0804100C1814000C0C101C30302C233
:102D9000C60607C705C5C404CC0C0DCD0FCFCE0E9B
:102DA0000ACACB0BC90908C8D81819D91BDBDA1A0B
:102DB0001EDEDF1FDD1D1CDC14D4D515D71716D67B
:102DC000D21213D311D1D010F03031F133F3F232EB
:102DD00036F6F737F53534F43CFCFD3DFF3F3EFE5B
:102DE000FA3A3BFB39F9F83828E8E929EB2B2AEACB
:102DF000EE2E2FEF2DEDEC2CE42425E527E7E6263B
:102E000022E2E323E12120E0A06061A163A3A262AA
:102E100066A6A767A56564A46CACAD6DAF6F6EAE1A
:102E2000AA6A6BAB69A9A86878B8B979BB7B7ABA8A
:102E3000BE7E7FBF7DBDBC7CB47475B577B7B676FA
:102E400072B2B373B17170B050909151935352926A
:102E500096565797559594549C5C5D9D5F9F9E5EDA
:102E60005A9A9B5B99595898884849894B8B8A4A4A
:102E70004E8E8F4F8D4D4C8C4484854587474686BA
:102E80008242438341818040F8060020FA060020F8
:102E9000FC060020FE06002000070020020700209C
:102EA0000407002006070020080700200A0700206A
:102EB0000C0700200E07002010070020120700203A
:102EC0001407002016070020180700201A0700200A
:102ED0001C0700201E0700202007002022070020DA
:102EE0002407002026070020280700202A070020AA
:102EF0002C0700202E07002030070020320700207A
:102F00003407002036070020380700203A07002049
:102F10003C0700203E070020400700204207002019
:102F20004407002046070020480700204A070020E9
:102F30004C0700204E0700205007002052070020B9
:102F40005407002056070020580700205A07002089
:102F50005C0700205E070020600700206207002059
:102F60006407002066070020680700206A07002029
:102F70006C0700206E0700207007002072070020F9
:102F80007407002076070020380400203A0400204F
:102F90003C0400203E040020400400204E04002099
:102FA0005004002052040020540400205604002045
:102FB0006404002066040020680400206A040020E5
:102FC0006C0400207A0400207C0400207E04002091
:102FD000800400208204002090040020920400203D
:102FE000940400209604002098040020A6040020E9
:102FF000A8040020AA040020AC040020AE04002095
:10300000BC040020BE040020C0040020C204002034
:10301000C4040020D2040020D4040020D6040020E0
:10302000D8040020DA040020E8040020EA0400208C
:10303000EC040020EE040020F0040020FE04002038
:1030400000050020020500200405002006050020E0
:103050001405002016050020180500201A05002080
:103060001C0500202A0500202C0500202E0500202C
:1030700030050020320500204005002042050020D8
:103080004405002046050020480500205605002084
:10309000580500205A0500205C0500205E05002030
:1030A0006C0500206E0500207005002072050020D0
:1030B000740500208205002084050020860500207C
:1030C000880500208A050020980500209A05002028
:1030D0009C0500209E050020A0050020AE050020D4
:1030E000B0050020B2050020B4050020B605002080
:1030F000C4050020C6050020C8050020CA05002020
:10310000CC050020DA050020DC050020DE050020CB
:10311000E0050020E2050020F0050020F205002077
:10312000F4050020F6050020F80500200606002022
:10313000080600200A0600200C0600200E060020CB
:103140001C0600201E06002020060020220600206B
:103150002406002032060020340600203606002017
:10316000380600203A060020480600204A060020C3
:103170004C0600204E060020500600205E0600206F
:10318000600600206206002064060020660600201B
:103190007406002076060020780600207A060020BB
:1031A0007C0600208A0600208C0600208E06002067
:1031B0009006002092060020A0060020A206002013
:1031C000A4060020A6060020A8060020B6060020BF
:1031D000B8060020BA060020BC060020BE0600206B
:1031E000CC060020CE060020D0060020D20600200B
:1031F000D4060020E2060020E4060020E6060020B7
:10320000E8060020EA0600204604002048040020CA
:103210004A0400204C0400205C0400205E040020CE
:103220006004002062040020720400207404002066
:103230007604002078040020880400208A040020FE
:103240008C0400208E0400209E040020A004002096
:10325000A2040020A4040020B4040020B60400202E
:10326000B8040020BA040020CA040020CC040020C6
:10327000CE040020D0040020E0040020E20400205E
:10328000E4040020E6040020F6040020F8040020F6
:10329000FA040020FC0400200C0500200E0500208C
:1032A0001005002012050020220500202405002022
:1032B0002605002028050020380500203A050020BA
:1032C0003C0500203E0500204E0500205005002052
:1032D00052050020540500206405002066050020EA
:1032E000680500206A0500207A0500207C05002082
:1032F0007E0500208005002090050020920500201A
:103300009405002096050020A6050020A8050020B1
:10331000AA050020AC050020BC050020BE05002049
:10332000C0050020C2050020D2050020D4050020E1
:10333000D6050020D8050020E8050020EA05002079
:10334000EC050020EE050020FE0500200006002010
:1033500002060020040600201406002016060020A5
:10336000180600201A0600202A0600202C0600203D
:103370002E060020300600204006002042060020D5
:10338000440600204606002056060020580600206D
:103390005A0600205C0600206C0600206E06002005
:1033A000700600207206002082060020840600209D
:1033B0008606002088060020980600209A06002035
:1033C0009C0600209E060020AE060020B0060020CD
:1033D000B2060020B4060020C4060020C606002065
:1033E000C8060020CA060020DA060020DC060020FD
:1033F000DE060020E0060020F0060020F206002095
:10340000F4060020F60600204204002044040020B8
:10341000580400205A0400206E040020700400208C
:1034200084040020860400209A0400209C040020CC
:10343000B0040020B2040020C6040020C80400200C
:10344000DC040020DE040020F2040020F40400204C
:10345000080500200A0500201E0500202005002088
:1034600034050020360500204A0500204C050020C8
:103470006005002062050020760500207805002008
:103480008C0500208E0500208C0500208E05002074
:10349000A2050020A4050020B8050020BA050020E0
:1034A000CE050020D0050020E4050020E605002020
:1034B000FA050020FC05002010060020120600205E
:1034C00026060020280600203C0600203E0600209C
:1034D0005206002054060020680600206A060020DC
:1034E0007E0600208006002094060020960600201C
:1034F000AA060020AC060020C0060020C20600205C
:10350000D6060020D8060020EC060020EE0600209B
:103510001C04002020040020220400202404002099
:1035200026040020280400201E0400202A04002075
:103530005035000800000020F80000004820000876
:1035400048360008F8000020F81400005820000851
:10355000000000000000000000000000000000006B
:103560000000000102030401020304060708090227
:103570000406080000000000000000000000000138
:10358000000000000000000080250000403800001E
:10359000004B000000960000C0DA000000E10000CF
:1035A00000C2010000000000140014001400140008
:1035B0000A000A000A000A000100010001000100DF
:1035C00000000000000000000000000000000000FB
:1035D0003333933F0000A03FCDCCAC3F9A99B93F25
:1035E0006666C63F3333D33F0000E03FCDCCEC3FAF
:1035F000920C0C00930C0C00940C0C00950C0C001D
:10360000960C0C00970C0C00980C0C00990C0C00FC
:1036100000000000000000000000000000000000AA
:10362000000000000000000000000000000000009A
:10363000000000000000000000000000000000008A
:08364000000000000000000082
:0400000508000131BD
:00000001FF
